:1000000078C213C791C202C7F5C68EC28DC28CC218
:100010008BC23BC789C288C287C286C285C284C2DE
:1000200083C282C281C293C825C9A2C950C975C9F9
:100030007FC911CA2FCA43CA57CA72CA95CA436F29
:100040006D6D756E69636174696E67004E6F2062D5
:100050006C7565746F6F746820004C434400436195
:100060006C696272617465206F76656E00504944F8
:10007000005265666C6F7700436F6E7472617374C3
:10008000004261636B6C69676874004C6561642051
:1000900066726565004C65616465640043616E630A
:1000A000656C005265666C6F77206E6F77004C0050
:1000B0003E0020204C495354454E494E47202020B5
:1000C0000071006D005E005A002020204F505449FE
:1000D0004F4E53202020200081007800204C4344C4
:1000E000204F5054494F4E532020005A45524F2024
:1000F00043414C4942524154450095008B00202019
:100100002050524F46494C452020202000A3009CFF
:1001100000205245464C4F5720524541445920003B
:1001200020205245464C4F57494E47202020005A28
:10013000009600B400D900C800F000DC00F000F028
:1001400000D9000E0119005A009600B400B400C88E
:1001500000D200DC00D200F000B4000E0119002033
:1001600020444552495641544956452020002020FC
:1001700020494E544547455220202020002050520F
:100180004F504F5254494F4E414C200020202043A5
:100190004F4E5452415354202020002020424143CE
:1001A0004B4C494748542020200006090B0D0E10E7
:1001B00011121315161717181A1A1B1C1D1D1F1FB5
:1001C00020212122232424252626272729292A2ADB
:1001D0002B2B2C2D2E2E2F2F303131323333343523
:1001E000353636373839393A3A3B3B3D3D3E3E3F6E
:1001F000404041424343444545474748494A4A4CA9
:100200004D4D4E4F515253545657595B5EF807FEB1
:100210001F061E03338331C330633033301E18FE94
:100220001FF807000000000C300C300E30FF3FFFBD
:100230003F00300030003000001C301E38073C0307
:100240003E03378333C331E33077303E301C300C0C
:100250000C0E1C0738C330C330C330C330C330E783
:10026000397E1F3C0EC003E003700338031C030EED
:10027000030703FF3FFF3F000300033F0C7F1C63A6
:100280003863306330633063306330E338C31F83D7
:100290000FC00FF01FF839DC30CE30C730C330C389
:1002A00030C339801F000F03000300030003300335
:1002B0003C030FC303F3003F000F000300000FBC1B
:1002C0001FFE39E730C330C330C330E730FE39BCDE
:1002D0001F000F3C007E00E730C330C330C338C37B
:1002E0001CC30EE707FE03FC000000000000000036
:1002F00000000000000000000000000000000000FE
:100300000018003C00660066003C00180000000079
:100310000000000000F003FC0F0E1C073803300340
:1003200030033007380E1C0C0C00000000000000E9
:1003300000005F00000007000700147F147F1424F2
:100340002A7F2A1223130864623649552250000579
:10035000030000001C2241000041221C0014083E42
:10036000081408083E080800503000000808080873
:1003700008006060000020100804023E5149453E1C
:1003800000427F400042615149462141454B3118AE
:1003900014127F1027454545393C4A4949300171BF
:1003A0000905033649494936064949291E003636AA
:1003B00000000056360000081422410014141414E2
:1003C0001400412214080201510906324979413EC4
:1003D0007E1111117E7F494949363E414141227FBC
:1003E0004141221C7F494949417F090909013E4198
:1003F00049497A7F0808087F00417F410020404139
:100400003F017F081422417F404040407F020C02A0
:100410007F7F0408107F3E4141413E7F0909090664
:100420003E4151215E7F091929464649494931011A
:10043000017F01013F4040403F1F2040201F3F40BF
:1004400038403F6314081463070870080761514976
:100450004543007F41410002040810200041417FD4
:100460000004020102044040404040000102040038
:1004700020545454787F4844443838444444203805
:100480004444487F3854545418087E0901020C52E1
:1004900052523E7F0804047800447D4000204044CE
:1004A0003D007F1028440000417F40007C04180478
:1004B000787C0804047838444444387C14141408C4
:1004C000081414187C7C080404084854545420046C
:1004D0003F4440203C4040207C1C2040201C3C40AD
:1004E00030403C44281028440C5050503C44645444
:1004F0004C4411241FBECFE5D4E0DEBFCDBF10E0D9
:10050000A0E6B0E0E2EAFEE102C005900D92A0375D
:10051000B107D9F710E0A0E7B0E001C01D92A737FE
:10052000B107E1F70FD5BBCC6BCDAA9AA8988FB9CC
:10053000779BFECFA89A08950F931F93CF93DF93D5
:1005400000D000D0CDB7DEB78C01FC0161A172A153
:100550007727660F771F660F771F85819681680F53
:10056000791F44E050E0CE0101962DDA49815A818D
:100570006B817C81F801838D948D9B01281B390B45
:10058000C901278D30A1BA01621B730B98DA768FEF
:10059000658F0F900F900F900F90DF91CF911F916B
:1005A0000F9108950F931F93CF93DF938C01CA018E
:1005B000F8016583C22FD0E0222329F0AE01BC01EF
:1005C000C80106965CDC90E02596292F30E0C21722
:1005D000D3074CF05D9BFECFF801E20FF31F808143
:1005E0008CB99F5FF2CFDF91CF911F910F9108954A
:1005F000AA98A8988FB9779BFECFA89A0895CF9311
:10060000C82F81E2F5DF8C2F8068F2DF80E2CF9186
:10061000EFCFCF92DF92EF92FF920F931F93CF9382
:10062000DF93CDB7DEB766970FB6F894DEBF0FBE87
:10063000CDBF082F162F86E1489FA0011124BA01D3
:10064000635F7D4F46E150E0CE010196BCD9006862
:10065000802FCEDF812F8064CBDFFE0131967F01BA
:100660006E01F7E1CF0ED11CF70180815EDFF2E071
:10067000EF0EF11CEC14FD04B9F780E056DF802F7B
:10068000B7DF81E0810F8064B3DF00E010E0E1E0DC
:10069000F0E0EC0FFD1FE00FF11F818146DF0E5FE0
:1006A0001F4F0631110599F780E03FDF66960FB6C0
:1006B000F894DEBF0FBECDBFDF91CF911F910F9198
:1006C000FF90EF90DF90CF900895EF92FF921F93ED
:1006D000CF93DF93D82F162F9A01CA0164E670E0FA
:1006E000EED9662311F0462F01C04AE0C90164E645
:1006F00070E0E5D97C016AE070E0E1D9611571052F
:1007000021F44A3021F0C0E003C0C62F01C0CAE086
:10071000612F8D2F7EDF4C2F612F8CE08D0F79DFC5
:10072000C7016AE070E0CBD9482F612F88E18D0FB7
:10073000DF91CF911F91FF90EF906BCFAB01FC0148
:1007400061818081C2CFCF93DF93EC01688570E037
:100750000696F4DF8D818D3079F4288530E0AFEF97
:10076000B3E0A1D924E630E040E050E0BCD93BBD85
:100770002ABDDF91CF9108958885DF91CF913FCF3A
:10078000FF920F931F93CF93DF9300D000D000D040
:10079000CDB7DEB7F62E90E0809745E0489F9001F8
:1007A000499F300D1124B901655D7C4F45E050E053
:1007B0008E010F5F1F4FC80106D91E82F11006C0BF
:1007C000AA9AA898F801CE0107960BC0F80196E006
:1007D000900F8081809581939E13FBCFF1CF779B03
:1007E000FECFE817F90719F021912FB9F8CFA89A91
:1007F00026960FB6F894DEBF0FBECDBFDF91CF9126
:100800001F910F91FF900895AF92BF92DF92EF92E8
:10081000FF920F931F93CF93DF93CDB7DEB72D9742
:100820000FB6F894DEBF0FBECDBF7C0110E002E032
:10083000010FF7019781191748F5F7019581868116
:10084000E92FF82FE10FF11DE10FF11D6591749172
:10085000CE010196C1D8DD24D394F7018085181309
:10086000D12C802F8064C4DECE0101965C0100E0B3
:10087000802F8068BDDE0A5FF50181915F018823CA
:1008800019F06D2D7DDFF4CF1F5FD1CF2D960FB600
:10089000F894DEBF0FBECDBFDF91CF911F910F91B6
:1008A000FF90EF90DF90BF90AF9008951F93CF938C
:1008B000DF93EB0180E49CDE10E0812F806898DEFE
:1008C0001A5FFE018491882321F0219661E058DFB0
:1008D000F4CFDF91CF911F910895CF93CCEF80E0BB
:1008E00024DEC150E1F7CCEF80E01FDEC150E1F71C
:1008F000CF910895FC0199278799939581E09111F3
:1009000001C080E0918191110EC0908191110BC0C6
:10091000882349F0992786999395992311F091E0BE
:1009200001C09FEF9183808308950F931F93CF930E
:100930008C01C62F8FEF860F833628F4E62FF0E068
:10094000E755FE4FC49141110BC089E090E06ED88D
:100950002EE4829FC001112464E670E0B0D802C08A
:1009600060E070E0F89422E430E0261B370B64E688
:1009700070E0AB014C1B5109249FC001259F900DD5
:10098000349F900D11249BD8F8016183C083789423
:10099000CF911F910F91089590E050D8883E23E0A9
:1009A000920710F087EE93E00895F894609172003A
:1009B00070917300809174009091750078940895FF
:1009C000EF92FF920F931F93CF93DF93EC01798304
:1009D00068835B834A830C831D832E833F837C0162
:1009E00088E0E80EF11CB901C70160DF188682E0DB
:1009F0008987802FD1DF9B878A87BC01C7019EDE54
:100A0000D4DF6C877D878E879F87DF91CF911F9181
:100A10000F91FF90EF900895EF920F93CF93DF9394
:100A2000EC01798368835B834A833E832D830F8344
:100A3000EC828E2D90E0FAD7801710F4888701C0E1
:100A40001886B3DF69877A878B879C87CE01DF9111
:100A5000CF910F91EF90D8CECF92DF92EF92FF928D
:100A60001F93CF93DF93EC018827B099839511E012
:100A7000811101C010E099DFCB80DC80ED80FE8029
:100A80006C157D058E059F05C9F06B837C838D8376
:100A90009E8328813981220F331F306E212B3983A9
:100AA00028832115304F51F48A81811107C07DDFE1
:100AB0006F83788789879A8781E08A83DF91CF91D6
:100AC0001F91FF90EF90DF90CF900895CF92DF922B
:100AD000EF92FF926B017C0168DF6C197D098E0932
:100AE0009F09FF90EF90DF90CF900895CF93DF9311
:100AF000EC0169857A858B859C85E8DF69387341CF
:100B00008105910590F588819981F4DE8A819B8128
:100B1000A3DFE881F98181811182882341F1282FA7
:100B2000332727FD3095488587FF0AC031952195E9
:100B30003109642F70E0621773076CF418860DC0DA
:100B40009F81240F311D692F70E0261737071CF095
:100B50009150988702C0840F888727DF69877A873A
:100B60008B879C87CE0150DE02C080E001C081E00F
:100B7000DF91CF9108950F931F93CF93DF938C0153
:100B8000DC01CD91DC91688179818A819B819EDF36
:100B9000693C71058105910508F466C0C29884E03E
:100BA00040E050E0BA011FB8779BFECF762F652F4B
:100BB000542F44279FB1492B8150A9F7C29A40FF77
:100BC00002C084E020C041FF02C083E01CC042FF9D
:100BD00002C082E018C0DB01CA0132E1B695A795D8
:100BE000979587953A95D1F777FF03C0906CAF6FD3
:100BF000BF6F22E0B695A795979587952A95D1F76F
:100C00009D838C8381E08E83D0DE688379838A83A1
:100C10009B83D801ED91FC9186818230D9F098F4C4
:100C2000813011F54481558162E080E04EDD4BE07A
:100C300062E084E2EEDC4CE062E080E3DF91CF91A1
:100C40001F910F91E6CC833041F0843069F48AE63D
:100C500090E005C080E690E002C085E690E0DF917C
:100C6000CF911F910F9142C1DF91CF911F910F91B1
:100C70000895FC012281222369F012826781708528
:100C80008185928523DF21E06B3F71058105910508
:100C900008F020E0822F0895CF93DF93EC01888144
:100CA000998128DE8A819B81D7DEE881F981918153
:100CB00011829923E1F0888597FF0CC0482F50E0FE
:100CC000692F772761950CF470954617570714F430
:100CD000188606C0890F9C81891708F4982F988779
:100CE000CE0131DD62DE69877A878B879C876985D3
:100CF0007A858B859C85EADE613177428105910595
:100D000048F48A819B81B5DF882349F28D8168850B
:100D100090E099D680E0DF91CF9108950F931F93D3
:100D2000CF93DF93EC018C01085F1F4F888199817D
:100D3000E1DD8A819B8190DEE881F98191811182D8
:100D4000992329F1292F332727FD30954A855B8583
:100D500097FF0AC088279927821B930B48175907CA
:100D60001CF41B861A860AC0240F351F283E83E018
:100D7000380710F027EE33E03B872A876A857B85AA
:100D8000C801DCDC12DE6C877D878E879F876C85CF
:100D90007D858E859F859ADE693873418105910531
:100DA00068F48A819B8165DF882309F4BFCF6A8557
:100DB0007B858C8190E054D68D8101C080E0DF91ED
:100DC000CF911F910F9108951F93CF93DF93EC0163
:100DD0008885FB0180838A819B814BDF182F8823C4
:100DE00021F08C81688590E02ED6812FDF91CF9104
:100DF0001F9108951F920F920FB60F92112493988E
:100E000015BC0F900FBE0F901F9018951F920F9258
:100E10000FB60F9211248F93939A8CEF84BD8F910C
:100E20000F900FBE0F901F9018951F920F920FB644
:100E30000F9211248F93EF93FF93E0917000F09144
:100E400071008081882339F08081843631F081817E
:100E5000882319F009C0939810C0939A818183BDAB
:100E600014BC87E085BD09C081818334B8F38181DA
:100E70008F3488F782E48183F1CFFF91EF918F91D6
:100E80000F900FBE0F901F9018951F920F920FB6E4
:100E90000F9211248F939F93AF93BF93809176000D
:100EA0008F5F8093760080917600837099F48091B3
:100EB000720090917300A0917400B091750001963A
:100EC000A11DB11D8093720090937300A0937400D4
:100ED000B093750082B78A5F82BFBF91AF919F9137
:100EE0008F910F900FBE0F901F901895EF92FF9269
:100EF0000F931F93CF93DF931F92CDB7DEB7182FB9
:100F000080E8998375DB82E473DB012FE12E998100
:100F1000F92E1E2D101BF70181917F01882319F0F6
:100F200060E02EDCF6CF1C3028F460E080E228DCA4
:100F30001F5FF9CF0F90DF91CF911F910F91FF901D
:100F4000EF900895CF93DF93CDB7DEB7CA56D1099E
:100F50000FB6F894DEBF0FBECDBFF89480E090E0EE
:100F60006DD585359A4A61F160E082E090E06BD5FD
:100F700060E08AE090E067D560E08BE090E063D5C8
:100F800065E070E083E090E06BD563E070E085E0C1
:100F900090E066D563E070E087E090E061D560E0C6
:100FA00089E090E050D564E68DE090E04CD560E5B6
:100FB0008EE090E048D565E57AEA80E090E050D593
:100FC0008FEE98EDAFEFBFEF8BA79CA7ADA7BEA7A5
:100FD00019AA18AA1FA61BAA1AAA62E370E06C0F2E
:100FE0007D1F709371006093700015BC89B7806C91
:100FF00089BF1EAE10BC83E389B91BB888E18AB9EA
:1010000086E880BD1FAE21961FAE21978FEF9FEF20
:1010100023969FAF8EAF239728961CAE1DAE1EAEB3
:101020001FAE289724961FAE249780E58DB9709A3D
:101030008EB18FB1899A8898909AA29AB99A1BBC5E
:101040001ABC83E88FBD82E08EBDA19AA09AA89AAF
:10105000BA9AC29ABC98BB9ABD9A8A9885BF80E416
:101060008BBF8B9A93988F988E98979A969AB898E8
:10107000C09A8D9A959883B7826083BF89B7816043
:1010800089BFA99A92DCDC01CB018396A11DB11D19
:1010900000917200109173002091740030917500DE
:1010A000081719072A073B0798F3A9987EDCDC018B
:1010B000CB010296A11DB11D009172001091730029
:1010C0002091740030917500081719072A073B0713
:1010D00098F3A99A81E28CDA84E18ADA84E088DAEA
:1010E00080E286DA8CE084DA8EE090E09FD487FF9D
:1010F00005C060E58EE090E0A6D480E580DAEDDB07
:1011000078948DE090E092D4282F30E0AFEFB3E0F8
:10111000CAD424E630E040E050E0E5D43BBD2ABD2F
:1011200080E0BBE2CB2ED12CCC0EDD1E76E1C70ECB
:10113000D11C1E019FE3290E311C082F10E0CDDBCE
:101140000C301105E0F7F801ED5EFF4F0994CE0178
:10115000C4969A838983DC82CB82A2E3B0E0AC0F91
:10116000BD1FBE83AD8362EB70E08D979FDBEBE22A
:10117000F0E0EC0FFD1FF887EF838EEA90E09B878D
:101180008A878FEF898795986FEE78ED8FEF9FEFC5
:101190006C877D878E879F8710E0CE010796EBDCFA
:1011A00089851817E1F01987E12FF0E0EE0FFF1F96
:1011B0008A859B85E80FF91F0591149185E418DA5B
:1011C000F12C8F2D806814DA76E0F70EF801849107
:1011D000882329F00F5F1F4F60E0D2DAF2CF8B81B6
:1011E0009C813ADCE981FA8182858A3038F55F9BFF
:1011F00025C09CB1DF01A80FB11D9C931281811104
:1012000004C090819A3A79F4A0C2813021F491818E
:10121000953549F49AC2823009F097C29FEF910F39
:10122000963008F492C212868285853009F01FC27A
:10123000113009F424C2163009F421C26C857D8571
:101240008E859F8543DC693873418105910518F4CB
:10125000959A11E0A2CF95988B819C810ADD882315
:1012600009F49ACF40E060E08D819E815EDB959825
:1012700081E063CF69EC70E0CE01019617DB7AE084
:10128000E72E04E021EC30E0A601B101CE01019689
:10129000C3DBCE0101962ADC882309F4E6C1BE0136
:1012A000645B7F4FCE0101968FDD882391F32D96ED
:1012B0008FAD2D97813029F040F0833021F483E009
:1012C0003CCF87E03ACF82E038CF86E036CF6CED76
:1012D00070E0CE010196EADA6CE0E62E02E028ED3D
:1012E00030E0A601B101CE01019696DBCE01019658
:1012F000FDDB882309F4B9C1BE01645B7F4FCE01D9
:10130000019662DD882391F32D968FAD2D9788236A
:1013100011F085E012CF84E010CF3A822982DC827E
:10132000CB8284E68D838DE08E836BE971E00AC009
:101330003A822982DC82CB828FE78D838EE08E8396
:101340006CE871E0CE010796B1DA1F8282E08887EF
:101350008E8190E06BD38987CE010196F4D925DB8D
:101360006A877B878C879D87CE01019695DCE5CEC9
:101370003A822982DC82CB8262E370E06C0F7D1FAF
:101380007E836D836BEE70E0CE0107968FDA1F824D
:1013900082E0888789E090E049D38987682F70E0F0
:1013A000CE010796CBD941E069858D819E81BDDA5A
:1013B000FCDA6A877B878C879D8789819A819ADA94
:1013C0008B819C8149DBE981FA81818111828823AB
:1013D00019F1998587FF0CC0492F50E0A82FBB2732
:1013E000A1950CF4B0954A175B0714F4198605C053
:1013F000890F853608F084E68987698570E0CE011B
:1014000007969CD941E069858D819E818EDACDDA7F
:101410006A877B878C879D876A857B858C859D8580
:1014200055DB613375478105910528F041E060E0A7
:101430008D819E8119C18B819C811BDC882309F4DD
:10144000BCCF41E060E08D819E816FDA698589E0E3
:1014500090E0F9D20AC16EEF70E0CE01019626DA73
:1014600052E0E52E02E02AEF30E0A601B101CE0104
:101470000196D2DACE01019639DB882309F4F5C052
:10148000BE01645B7F4FCE0101969EDC882391F301
:101490008AE053CEE3E06C96EFAF6C97F8E06D9680
:1014A000FFAF6D976DE771E06F967FAF6EAF6F978F
:1014B0006F960CAD1DAD2EAD3FAD6F9728C075E09A
:1014C000A0967FAFA09789E0A1968FAFA197AEE6D7
:1014D000B1E0A396BFAFAEAFA397A3960CAD1DAD81
:1014E0002EAD3FADA39713C0B7E0A496BFAFA497AE
:1014F000A5961FAEA597EFE5F1E0A796FFAFEEAF7B
:10150000A797A7960CAD1DAD2EAD3FADA797A60131
:10151000B101CE01019654DACE010196FFDB0DCE6A
:1015200061E171E0CE010196C1D94BE0E42E02E009
:101530002DE031E0A601B101CE0101966DDACE01B8
:101540000196D4DA882309F490C0BE01645B7F4F12
:10155000CE01019639DC882391F32D968FAD2D971E
:10156000811183C08BE0E9CDDA82C98262E370E049
:101570006C0F7D1F7C836B8360E271E0CE018996E6
:1015800095D98BE290E08C0F9D1F9AA789A783E0E5
:1015900003DA4C0185E000DA5C0187E0FDD98C01BB
:1015A000B40180E090E052D3688779878A879B876F
:1015B000B50180E090E04AD36C877D878E879F8756
:1015C000B80180E090E042D3688B798B8A8B9B8B4B
:1015D0001C8A1D8A1E8A1F8A188E198E1A8E1B8ECF
:1015E00082E090E023D2811105C086E08D8387E4FC
:1015F00091E004C086E08D838FE291E09F838E832B
:1016000089E190E09D8F8C8F19A218A21BA21AA2CB
:10161000CCD96CA37DA38EA39FA3CE0101968CD7BA
:1016200023E7F22E03E435E2E32ECE018996A3DA16
:1016300089819A8111DAA9A4BAA46CA17DA18EA195
:101640009FA144DA693E73408105910520F0F501C0
:101650008681811184C089819A810BDB882329F3DB
:1016600040E060E08B819C8160D980E066CD86306F
:1016700009F0E4CD8EEF810F843008F0DFCD1286C3
:10168000112309F4DBCD058190D96C877D878E8786
:101690009F87133089F130F4113009F459C01230AA
:1016A00019F14BC0153009F43FC060F1163009F054
:1016B00044C009811A8189E090E0B8D12D968FAF9E
:1016C0002D978DE090E0B2D12E968FAF2E978EE0C1
:1016D00090E0ACD12F968FAF2F9723E0AE01445B03
:1016E0005F4F60E0C8012FC0053638F540E0602F3D
:1016F0008D819E811AD92CC00536F8F4602F89E0BF
:1017000090E019C00536C8F4202F30E0AFEFB3E009
:10171000CAD124E630E040E050E0E5D13BBD2ABD2F
:10172000602F8DE090E007C007FD07C0802F67D7CE
:10173000602F8EE090E087D10BC020E040E050E0C9
:1017400061E089819A812ED779CD8F5F82876CCDB8
:101750004F8158854C5F5F4F23E060E0F2CF8130CE
:1017600009F07ECF22D96CA37DA38EA39FA388A16D
:1017700099A1892B51F4D50114962D913C9115977F
:101780008C8D9D8D28173907BCF16AA17BA1772725
:10179000660F771F660F771F8E819F81680F791FF5
:1017A00044E050E0CE01845B9F4F0DD160968CAD3C
:1017B0009DADAEADBFAD609728A139A128173907FF
:1017C00071F48AA19BA101969BA38AA32D8130E08D
:1017D0008217930709F444CFCE010196ADD688A1B4
:1017E00099A1019699A388A32C8D3D8D8E8D9F8DF7
:1017F000820F931F9D8F8C8F6C8D7D8D882777FD39
:101800008095982F25D22B013C01F50164817581CB
:10181000882777FD8095982F1BD29B01AC01C301CF
:10182000B20183D12B013C01288D398D4A8D5B8D0E
:101830007DD14B015C0120E030E048EC52E494D2D1
:10184000181664F020E030E0A901C501B4018CD283
:10185000181654F0812C912C540106C0812C912C27
:1018600088ECA82E82E4B82E888E998EAA8EBB8E24
:10187000288539854A855B85C301B20179D2AB964B
:101880006CAF7DAF8EAF9FAFAB972C853D854E85FE
:101890005F85C501B4016CD29B01AC01AB966CAD08
:1018A0007DAD8EAD9FADAB9741D14B015C012C89D5
:1018B0003D894E895F89C301B20137D128893989B1
:1018C0004A895B8955D29B01AC01C501B4012ED177
:1018D0004B015C0120E030E048EC52E445D21816A0
:1018E0006CF020E030E0A901B401C5013DD218162A
:1018F00054F0812C912C30E020E007C0812C912CF9
:1019000038EC22E402C03A2D2B2D4C8A5D8A6E8A77
:101910007F8AB401832F922F6DD1562E40E08B81A8
:101920009C8103D88C8C9D8CA8A0B9A04EE050E07F
:1019300060E270E0CE01845B9F4FAAD24AE0BE0114
:10194000645B7F4FC5014FD0BE01645B7F4F5B017D
:10195000CB01FC01019620812111FBCFF0823F01D8
:1019600072E0670E711C4AE0B301C4013CD0F30180
:101970008FEF681A780A80818111F9CF00834F01B7
:1019800092E0890E911C4AE0B401852D90E02BD0A5
:10199000F401AFEF8A1A9A0A80818111F9CFE082AF
:1019A0006B961FAE6B9785E423D610E0812F80687D
:1019B0001FD61A5FF50181915F01882309F44BCE90
:1019C00060E0DED6F3CFFB01DC0102C005900D9292
:1019D00041505040D8F70895FB01DC0105900D926D
:1019E0000020E1F70895BB274A3031F4992322F40F
:1019F000BDE2909581959F4F01C0BB27FB01552704
:101A0000AA27880F991FAA1FA41710F0A41B83955B
:101A10005051B9F7A05DAA3308F0A95DA1930097D2
:101A200079F7B111B1931192CB011DC0E199FECFAD
:101A30009FBB8EBBE09A99278DB30895A8E1B0E0D3
:101A400042E050E022C0262FE199FECF9FBB8EBB23
:101A50002DBB0FB6F894E29AE19A0FBE0196089555
:101A6000F2DF272FF1CFDC01FC01672F7191772383
:101A7000E1F7329704C07C916D9370836291AE1749
:101A8000BF07C8F30895DC01CB01FC01E199FECF4B
:101A900006C0FFBBEEBBE09A31960DB20D924150ED
:101AA0005040B8F70895A29FB001B39FC001A39F13
:101AB00001D0B29F700D811D1124911D0895AA1BA4
:101AC000BB1B51E107C0AA1FBB1FA617B70710F029
:101AD000A61BB70B881F991F5A95A9F7809590955B
:101AE000BC01CD010895A1E21A2EAA1BBB1BFD016A
:101AF0000DC0AA1FBB1FEE1FFF1FA217B307E407ED
:101B0000F50720F0A21BB30BE40BF50B661F771F44
:101B1000881F991F1A9469F7609570958095909524
:101B20009B01AC01BD01CF0108955058BB27AA27E6
:101B30000ED0E0C0D1D030F0D6D020F031F49F3FAD
:101B400011F41EF4C6C00EF4E095E7FBBCC0E92F0B
:101B5000E2D080F3BA17620773078407950718F07D
:101B600071F49EF5FAC00EF4E0950B2EBA2FA02D5D
:101B70000B01B90190010C01CA01A0011124FF273A
:101B8000591B99F0593F50F4503E68F11A16F04035
:101B9000A22F232F342F4427585FF3CF4695379534
:101BA0002795A795F0405395C9F77EF41F16BA0BF9
:101BB000620B730B840BBAF09150A1F0FF0FBB1FA7
:101BC000661F771F881FC2F70EC0BA0F621F731FF0
:101BD000841F48F4879577956795B795F7959E3F4D
:101BE00008F0B3CF9395880F08F09927EE0F9795DB
:101BF0008795089598D088F09F5790F0B92F99272E
:101C0000B751A0F0D1F0660F771F881F991F1AF007
:101C1000BA95C9F712C0B13081F09FD0B1E00895F4
:101C20009CC0672F782F8827B85F39F0B93FCCF375
:101C3000869577956795B395D9F73EF490958095FD
:101C4000709561957F4F8F4F9F4F0895E89409C01D
:101C500097FB3EF490958095709561957F4F8F4FDF
:101C60009F4F9923A9F0F92F96E9BB279395F695F5
:101C7000879577956795B795F111F8CFFAF4BB0F73
:101C800011F460FF1BC06F5F7F4F8F4F9F4F16C0D7
:101C9000882311F096E911C0772321F09EE8872F61
:101CA000762F05C0662371F096E8862F70E060E01D
:101CB0002AF09A95660F771F881FDAF7880F969596
:101CC000879597F9089597F99F6780E870E060E03D
:101CD00008959FEF80EC089500240A9416161706C5
:101CE00018060906089500240A941216130614060D
:101CF00005060895092E0394000C11F4882352F070
:101D0000BB0F40F4BF2B11F460FF04C06F5F7F4F27
:101D10008F4F9F4F089557FD9058440F551F59F00E
:101D20005F3F71F04795880F97FB991F61F09F3FC8
:101D300079F087950895121613061406551FF2CFF1
:101D40004695F1DF08C0161617061806991FF1CF41
:101D500086957105610508940895E894BB27662768
:101D60007727CB0197F9089566D008F48FEF08958F
:101D70000BD0C0CFB1DF28F0B6DF18F0952309F003
:101D8000A2CFA7CF1124EACFC6DFA0F3959FD1F34E
:101D9000950F50E0551F629FF001729FBB27F00D19
:101DA000B11D639FAA27F00DB11DAA1F649F66276E
:101DB000B00DA11D661F829F2227B00DA11D621FBD
:101DC000739FB00DA11D621F839FA00D611D221F77
:101DD000749F3327A00D611D231F849F600D211D5B
:101DE000822F762F6A2F11249F5750408AF0E1F0FE
:101DF00088234AF0EE0FFF1FBB1F661F771F881F47
:101E000091505040A9F79E3F510570F05CCFA6CF8E
:101E10005F3FECF3983EDCF3869577956795B79531
:101E2000F795E7959F5FC1F7FE2B880F911D96955B
:101E3000879597F90895990F0008550FAA0BE0E8C8
:101E4000FEEF16161706E807F907C0F0121613067C
:101E5000E407F50798F0621B730B840B950B39F4BC
:101E60000A2661F0232B242B252B21F408950A2622
:101E700009F4A140A6958FEF811D811D0895FB01F6
:101E8000DC0102C001900D9241505040D8F70895F6
:101E9000DC0101C06D9341505040E0F70895F89483
:021EA000FFCF72
:101EA200452031200045203220004520332000000B
:00000001FF
