:1000000029C2AEC642C29DC690C63FC23EC23DC2D4
:100010003CC2D6C63AC239C238C237C236C235C26D
:1000200034C233C232C259C807C998C937C961C975
:1000300070C9EFC912CA26CA3ACA5ACA82CA4C4300
:10004000440054454D50204F4646534554005049B6
:1000500044005245464C4F5700434F4E5452415373
:1000600054004241434B4C49474854004C4541449D
:100070002046524545004C45414445440043414ECD
:1000800043454C005245464C4F57204E4F57002099
:10009000204C495354454E494E47202020004E4F96
:1000A000204C494E4B202020202020200052004E82
:1000B0000042003E002020204F5054494F4E532014
:1000C0002020200062005900204C4344204F50540F
:1000D000494F4E53202000202054454D50204F467C
:1000E00046534554200076006C0020202050524F8B
:1000F00046494C45202020200084007D00205245A8
:10010000464C4F572052454144592000202052452B
:10011000464C4F57494E47202020005A009600B4C5
:1001200000D900C800F000DC00F000F000D9000E9B
:100130000119005A009600B400B400C800D200DCD7
:1001400000D200F000B4000E0119002020444552F6
:1001500049564154495645202000202020494E54FC
:100160004547455220202020002050524F504F52EA
:1001700054494F4E414C2000202020434F4E5452B2
:100180004153542020200020204241434B4C4947FA
:1001900048542020200006090B0D0E1011121315D3
:1001A000161717181A1A1B1C1D1D1F1F202121228C
:1001B000232424252626272729292A2A2B2B2C2DC0
:1001C0002E2E2F2F3031313233333435353636370A
:1001D0003839393A3A3B3B3D3D3E3E3F4040414253
:1001E0004343444545474748494A4A4C4D4D4E4F85
:1001F000515253545657595B5EF807FE1F061E03B3
:10020000338331C330633033301E18FE1FF80700CC
:100210000000000C300C300E30FF3FFF3F0030007C
:1002200030003000001C301E38073C033E0337838B
:1002300033C331E33077303E301C300C0C0E1C07DA
:1002400038C330C330C330C330C330E7397E1F3CBE
:100250000EC003E003700338031C030E030703FF03
:100260003FFF3F000300033F0C7F1C633863306394
:1002700030633063306330E338C31F830FC00FF047
:100280001FF839DC30CE30C730C330C330C33980BB
:100290001F000F0300030003000330033C030FC3E0
:1002A00003F3003F000F000300000FBC1FFE39E7FF
:1002B00030C330C330C330E730FE39BC1F000F3CC1
:1002C000007E00E730C330C330C338C31CC30EE721
:1002D00007FE03FC0000000000000000000000001A
:1002E0000000000000000000000000000018003CBA
:1002F00000660066003C00180000000000000000DE
:1003000000F003FC0F0E1C073803300330033007E6
:10031000380E1C0C0C000000008001800180018060
:1003200001800180018001800100000000000000C8
:10033000000000005F00000007000700147F147F2A
:1003400014242A7F2A122313086462364955225046
:100350000005030000001C2241000041221C001483
:10036000083E081408083E0808005030000008083D
:10037000080808006060000020100804023E51498F
:10038000453E00427F400042615149462141454B74
:10039000311814127F1027454545393C4A494930E8
:1003A00001710905033649494936064949291E00A4
:1003B000363600000056360000081422410014149E
:1003C000141414004122140802015109063249791B
:1003D000413E7E1111117E7F494949363E414141DE
:1003E000227F4141221C7F494949417F0909090176
:1003F0003E4149497A7F0808087F00417F4100203B
:1004000040413F017F081422417F404040407F022D
:100410000C027F7F0408107F3E4141413E7F090965
:1004200009063E4151215E7F09192946464949493D
:100430003101017F01013F4040403F1F2040201F0C
:100440003F4038403F631408146307087008076191
:100450005149454311241FBECFE5D4E0DEBFCDBFD7
:1004600010E0A0E6B0E0E8E6FFE102C005900D92E2
:10047000A037B107D9F710E0A0E7B0E001C01D92A6
:10048000A737B107E1F70ED56DCDBACDAA9AA898D6
:100490008FB9779BFECFA89A0895ADE0B0E0E2E572
:1004A000F2E015CB7C0110E002E0010FF70197812B
:1004B0001917D0F4F70195818681E92FF82FE10F04
:1004C000F11DE10FF11D65917491CE0101966ADA7B
:1004D00041E0F7018085181340E0BE016F5F7F4F58
:1004E000802F9FD41F5FE0CF2D96E6E00CCBA4E0D9
:1004F000B0E0ECE7F2E0E5CA8C01FC0165A176A171
:100500007727660F771F660F771F85819681680FA3
:10051000791F44E050E0CE0101963BDAC980DA80D1
:10052000EB80FC80B70180E090E0FADBF801238DDE
:10053000348D458D568DF6DA4B015C01F80183A1AF
:1005400094A1C81AD90AB60180E090E0E9DB9B01CA
:10055000AC01C501B4014BDBF801678F70A381A327
:1005600092A32496ECE0C9CA0F931F93CF93DF9315
:100570008C01CA01F8016583C22FD0E0222329F043
:10058000AE01BC01C8010696E4DC90E02596292F57
:1005900030E0C217D3074CF05D9BFECFF801E20FAD
:1005A000F31F80818CB99F5FF2CFDF91CF911F91B4
:1005B0000F910895AA98A8988FB9779BFECFA89A13
:1005C0000895CF93C82F81E2F5DF8C2F8068F2DF8A
:1005D00080E2F0DFCF910895A6E1B0E0E1EFF2E034
:1005E00074CA082F162F86E1489FA0011124BA0172
:1005F00067507E4F46E150E0CE010196CAD90068AF
:10060000802FD8DF812F8064D5DFFE0131967F01F6
:100610006E01F7E1CF0ED11CF701808137DFF2E0E8
:10062000EF0EF11CEC14FD04B9F780E02FDF802FF2
:10063000C1DF81E0810F8064BDDF00E010E0E1E018
:10064000F0E0EC0FFD1FE00FF11F81811FDF0E5F57
:100650001F4F0631110599F780E018DF6696E8E034
:1006600050CAEF92FF921F93CF93DF93D82F162F8C
:100670009A01CA0164E670E0D5D9662311F0462FCD
:1006800001C04AE0C90164E670E0CCD97C016AE0AF
:1006900070E0C8D96115710521F44A3021F0C0E03D
:1006A00003C0C62F01C0CAE0612F8D2F95DF4C2FEC
:1006B000612F8CE08D0F90DFC7016AE070E0B2D946
:1006C000482F612F88E18D0F87DFDF91CF911F9138
:1006D000FF90EF900895CF93DF93EC01488550E0B1
:1006E0006F818E81BEDF8D818D3069F4288530E089
:1006F000AFEFB3E08BD924E630E040E050E0B9D969
:100700003BBD2ABD02C088855CDFDF91CF91089593
:10071000A6E0B0E0EDE8F3E0DBC9F62E90E08097CC
:1007200045E0489F9001499F300D1124B901635D58
:100730007C4F45E050E08E010F5F1F4FC80129D963
:100740001E82F11006C0AA9AA898F801CE01079659
:100750000BC0F80196E0900F8081809581939E13E5
:10076000FBCFF1CF779BFECFE817F90719F0219166
:100770002FB9F8CFA89A2696E5E0C6C91F93CF9364
:10078000DF93EB0180E416DF10E0812F806812DF39
:100790001A5FFE018491882321F0219661E0B8DF81
:1007A000F4CFDF91CF911F9108950F931F93CF93B3
:1007B000DF93182F062FEA0157FF06C04DE00CDF2C
:1007C000D195C195D10902C04AE006DFAE01602F84
:1007D0008CE0810F46DFDF91CF911F910F9108953B
:1007E000CF93CCEF80E052DEC150E1F7CCEF80E058
:1007F0004DDEC150E1F7CF910895FC01992787990B
:10080000939581E0911101C080E0918191110EC01A
:10081000908191110BC0882349F09927869993956F
:10082000992311F091E001C09FEF91838083089597
:10083000CF93DF93EC01E62F8FEF860F833628F4FA
:10084000E62FF0E0EB56FE4FE491F89464E670E09A
:100850009B012E1B310942E4429FC001439F900D32
:100860001124F4D86983E8837894DF91CF910895B7
:1008700090E0A7D8883E23E0920710F087EE93E03F
:100880000895F894609172007091730080917400E3
:1008900090917500789408950F931F93CF93DF93F1
:1008A000EC01798368835B834A830C831D832E83E9
:1008B0003F83B901089662DF188682E08987802F1E
:1008C000D7DF9B878A87AC0162E080E0CADED9DF90
:1008D0006C877D878E879F87DF91CF911F910F91C6
:1008E0000895EF920F93CF93DF93EC0179836883A0
:1008F0005B834A833E832D830F83EC828E2D90E0B1
:1009000058D8801710F4888701C01886BADF698725
:100910007A878B879C87CE01C0DDDF91CF910F91C5
:10092000EF900895CF92DF92EF92FF921F93CF93B3
:10093000DF93EC018827B099839511E0811101C004
:1009400010E09FDFCB80DC80ED80FE806C157D05A4
:100950008E059F05C9F06B837C838D839E832881E0
:100960003981220F331F306E212B398328832115C3
:10097000304F51F48A81811107C083DF6F837887FC
:1009800089879A8781E08A83DF91CF911F91FF90B9
:10099000EF90DF90CF900895CF92DF92EF92FF9289
:1009A0006B017C016EDF6C197D098E099F09FF9038
:1009B000EF90DF90CF900895CF93DF93EC0169859E
:1009C0007A858B859C85E8DF6938734181059105BF
:1009D00090F58881998111DF8A819B81A3DFE8816D
:1009E000F98181811182882341F1282F332727FD46
:1009F0003095488587FF0AC0319521953109642FCC
:100A000070E0621773076CF418860DC09F81240F85
:100A1000311D692F70E0261737071CF09150988719
:100A200002C0840F88872DDF69877A878B879C8730
:100A3000CE0133DD02C080E001C081E0DF91CF91C3
:100A40000895A0E0B0E0E6E2F5E03DC88C01DC01ED
:100A5000CD91DC91688179818A819B819DDF693CA0
:100A600071058105910508F47AC0C29824E080E000
:100A700090E0DC011FB8779BFECFBA2FA92F982FEB
:100A800088273FB1832B2150A9F7C29A80FF02C06B
:100A900084E007C081FF02C083E003C082FF03C07F
:100AA00082E08E8333C06C017D0122E1F694E794ED
:100AB000D794C7942A95D1F7B7FF05C0B0ECDB2ACD
:100AC000EE24EA94FE2C82E0F694E794D794C7943F
:100AD0008A95D1F75601DD82CC8281E08E8389E050
:100AE00090E067D7282F332727FD309587FF07C071
:100AF00088279927821B930BC816D9062CF0C20EA3
:100B0000D31EDD82CC8202C01D821C82BADE6883C5
:100B100079838A839B83D801ED91FC918681823011
:100B2000C1F080F48130D9F44481558162E080E0E5
:100B300098DD4BE062E084E24FDD4CE062E080E370
:100B40004BDD0DC0833041F0843049F48AE690E0FB
:100B500005C080E690E002C085E690E080D1CDB788
:100B6000DEB7EAE0CCC7FC012281222369F01282C1
:100B700067817085818592850FDF21E06B3F71056C
:100B80008105910508F020E0822F0895CF93DF932F
:100B9000EC018881998131DE8A819B81C3DEE88105
:100BA000F981918111829923E1F0888597FF0CC02A
:100BB000482F50E0692F772761950CF47095461700
:100BC000570714F4188606C0890F9C81891708F40A
:100BD000982F9887CE017FDD54DE69877A878B87CF
:100BE0009C8769857A858B859C85D6DE61317742C5
:100BF0008105910548F48A819B81B5DF882349F2FC
:100C00008D81688590E0E2D680E0DF91CF910895F4
:100C1000CF93DF93EC0188819981EFDD8A819B81FD
:100C200081DEE881F98121811182222331F1822F35
:100C3000992787FD90954A855B8527FF0AC0222763
:100C40003327281B390B421753071CF41B861A86BF
:100C50000AC0840F951F883E23E0920710F087EEAC
:100C600093E09B878A874A855B8569858885F9DC5F
:100C700008DE6C877D878E879F876C857D858E8556
:100C80009F858ADE693873418105910568F48A8100
:100C90009B8169DF882309F4BECF6A857B858C81BF
:100CA00090E0A1D68D8101C080E0DF91CF910895C1
:100CB0001F93CF93DF93EC018885FB0180838A81AA
:100CC0009B8151DF182F882321F08C81688590E06B
:100CD0007DD6812FDF91CF911F910895CF93DF9320
:100CE000EC01FB0164E670E09DD6662319F020E379
:100CF000260F01C020E22083CE0164E670E092D688
:100D0000EC016AE070E08ED66115710511F42032B5
:100D100011F020E3260F2183CE016AE070E082D635
:100D2000805D8283DF91CF9108951F920F920FB65D
:100D30000F921124939815BC0F900FBE0F901F9027
:100D400018951F920F920FB60F9211248F93939ABA
:100D50008CEF84BD8F910F900FBE0F901F90189550
:100D60001F920F920FB60F9211248F93EF93FF9360
:100D7000E0917000F09171008081882339F08081CA
:100D8000843631F08181882319F009C0939810C00E
:100D9000939A818183BD14BC87E085BD09C08181A0
:100DA0008334B8F381818F3488F782E48183F1CF73
:100DB000FF91EF918F910F900FBE0F901F9018959C
:100DC0001F920F920FB60F9211248F939F93AF93A0
:100DD000BF93809176008F5F80937600809176003C
:100DE000837099F48091720090917300A0917400C7
:100DF000B09175000196A11DB11D80937200909372
:100E00007300A0937400B093750082B78A5F82BFAD
:100E1000BF91AF919F918F910F900FBE0F901F9038
:100E20001895A2E0B0E0E6E1F7E051C6042F806437
:100E300069837A83BFDB6981E62E7A81F72E10E021
:100E4000812F8068B7DB1A5FF70181917F018823CA
:100E500019F0602F5DDCF4CF2296E6E054C6A1E0E5
:100E6000B0E0E4E3F7E033C6182F80E89983A2DB13
:100E700082E4A0DB012FE12E9981F92E1E2D101B9B
:100E8000F70181917F01882319F060E041DCF6CF02
:100E90001C3028F460E080E23BDC1F5FF9CF219634
:100EA000E6E031C6A5E7B0E0E7E5F7E004C6F89470
:100EB00080E090E086D585359A4A61F160E082E075
:100EC00090E084D560E08AE090E080D560E08BE03F
:100ED00090E07CD565E070E083E090E084D563E04D
:100EE00070E085E090E07FD563E070E087E090E01F
:100EF0007AD560E089E090E069D564E68DE090E025
:100F000065D560E58EE090E061D565E57AEA80E040
:100F100090E069D58FEE98EDAFEFBFEF8FA798AB5C
:100F2000A9ABBAAB1DAA1CAA1BAA1FAA1EAA1E0106
:100F300036E3230E311C309271002092700015BCF4
:100F400089B7806C89BF23961FAE239710BC83E3BB
:100F500089B91BB888E18AB986E880BD24961FAE9E
:100F6000249725961FAE25978FEF9FEF27969FAF6B
:100F70008EAF27972C961CAE1DAE1EAE1FAE2C97C3
:100F800028961FAE289780E58DB9709A8EB18FB1E3
:100F9000899A8898909AA29AB99A1BBC1ABC83E83D
:100FA0008FBD82E08EBDA19AA09AA89ABA9AC29AE1
:100FB000BC98BB9ABD9A8A9885BF80E48BBF8B9AF8
:100FC00093988F988E98979A969AB898C09A8D9A77
:100FD000959883B7826083BF89B7816089BFA99ADA
:100FE00050DCDC01CB018396A11DB11D0091720084
:100FF0001091730020917400309175000817190743
:101000002A073B0798F3A9983CDCDC01CB01029648
:10101000A11DB11D00917200109173002091740008
:1010200030917500081719072A073B0798F3A99A0A
:1010300081E2C0DA84E1BEDA84E0BCDA80E2BADAC6
:101040008CE0B8DA8EE090E0B4D487FF05C060E5AC
:101050008EE090E0BBD480E5B4DAC2DB78948DE01A
:1010600090E0A7D4282F30E0AFEFB3E0CFD424E650
:1010700030E040E050E0FDD43BBD2ABD80E01FE2FF
:10108000C12ED12CCC0EDD1E96E1C90ED11CA0E5DF
:10109000B0E0AC0FBD1F1596E196BFAFAEAFE197C4
:1010A000E0E5F0E0EC0FFD1F3A96E396FFAFEEAF00
:1010B000E39720E530E02C0F3D1F2A5F3F4FE59678
:1010C0003FAF2EAFE597082F10E08ADB0C301105FB
:1010D000E0F7F801ED5EFF4F0994CE01C8966296E5
:1010E0009FAF8EAF62976496DFAECEAE6497669682
:1010F0003FAE2EAE66976FE870E080E590E08C0F13
:101100009D1F06963BDB8FE290E08C0F9D1F68963B
:101110009FAF8EAF689769961FAE699795988FEECF
:1011200098EDAFEFBFEF6D968CAF9DAFAEAFBFAF99
:101130006D9710E00FE476E5F72EE5E4EE2EFEE481
:10114000BF2EA0E2AA2EB5E29B2EE5968EAD9FADF6
:10115000E59777DC112381F00983FA82EB82BC8268
:10116000AD8269968FAD6997BE016A5F7F4F90E04F
:10117000B5DD99861A8605C06EE970E0CE0101964C
:1011800011D440E0BE016F5F7F4F85E04ADE649678
:101190008EAD9FAD6497C6DB6296EEADFFAD6297F4
:1011A00082858A3038F55F9B25C09CB1DF01A80F8E
:1011B000B11D9C932281811104C090819A3A79F4E7
:1011C00090C3813021F49181953549F48AC38230EE
:1011D00009F087C39FEF920F963008F482C31286FE
:1011E0008285853009F008C3213009F40DC326300B
:1011F00009F40AC36D966CAD7DAD8EAD9FAD6D9754
:10120000CBDB693873418105910518F4959A11E09B
:101210009CCF959864968EAD9FAD6497A4DC8111A8
:1012200002C010E092CF60E066968EAD9FAD6697EB
:10123000FFDA959881E047CF65EB70E0CE0101962B
:101240009DDA6AE0E62E04E02DEA30E0A6016FE2C6
:1012500070E06C0F7D1F6C5E7F4FCE01019641DB0D
:10126000CE010196A9DB882309F4C4C2BE01605BEC
:101270007F4FCE0101961CDD882391F361968FADDF
:101280006197813029F040F0833021F483E01BCF57
:1012900087E019CF82E017CF86E015CF68EC70E0C9
:1012A000CE0101966BDA5CE0E52E02E024EC30E042
:1012B000A6016FE270E06C0F7D1F6C5E7F4FCE0168
:1012C00001960FDBCE01019677DB882309F492C2E9
:1012D000BE01605B7F4FCE010196EADC882391F36B
:1012E00061968FAD6197882311F085E0ECCE84E0A4
:1012F000EACE8FE290E08C0F9D1F44969A838983FB
:10130000DC82CB8284E68D838DE08E8367E871E09A
:101310000FC08FE290E08C0F9D1F44969A838983C3
:10132000DC82CB828FE78D838EE08E8368E771E06D
:10133000CE01079623DA1F8282E088878E8190E0B3
:1013400038D38987CE010196C6D99BDA6A877B8715
:101350008C879D87CE01019619DCB5CE8FE290E097
:101360008C0F9D1F44969A838983DC82CB8267ED24
:1013700070E0CE01059602DA1D8282E08E8389E05C
:1013800090E017D38F83482F552747FD509562E093
:1013900080E00BDA76DA688779878A879B871DE990
:1013A00003E689819A8129DA8B819C81BBDAE98104
:1013B000FA81918111829923B9F08F81890F843646
:1013C00014F00F8305C08D3914F08F8301C01F8383
:1013D0004F81552747FD50956E818D81E6D951DAB1
:1013E000688779878A879B87688579858A859B85C1
:1013F000D3DA613375478105910508F0FBC18B8114
:101400009C81B1DB882369F26F8189E090E0DED2B4
:10141000F1C16AEE70E0CE010196B0D942E0E42E4F
:1014200002E026EE30E0A6016FE270E06C0F7D1F57
:101430006C5E7F4FCE01019654DACE010196BCDA84
:10144000882309F4D7C1BE01605B7F4FCE010196AE
:101450002FDC882391F38AE036CEE3E0A496EFAF49
:10146000A497F8E0A596FFAFA59729E631E0A796E7
:101470003FAF2EAFA797A7960CAD1DAD2EAD3FADDC
:10148000A79728C035E0A8963FAFA89789E0A9960E
:101490008FAFA997AAE5B1E0AB96BFAFAEAFAB9760
:1014A000AB960CAD1DAD2EAD3FADAB9713C0B7E005
:1014B000AC96BFAFAC97AD961FAEAD97EBE4F1E045
:1014C000AF96FFAFEEAFAF97AF960CAD1DAD2EADA3
:1014D0003FADAF97A6016FE270E06C0F7D1F6C5EB1
:1014E0007F4FCE010196D8D9CE01019691DBEBCD8D
:1014F0006DEF70E0CE01019641D93BE0E32E02E0B2
:1015000029EF30E0A6016FE270E06C0F7D1F6C5E8A
:101510007F4FCE010196E5D9CE0101964DDA8823A1
:1015200009F468C1BE01605B7F4FCE010196C0DB4C
:10153000882391F361968FAD619781115BC18BE038
:10154000C2CDDA82C9823C822B826CE071E0CE018E
:101550008D9614D92FE230E02C0F3D1F3EA72DA70A
:1015600083E086D95C0185E083D97C0187E080D95E
:101570008C01B50180E090E0D3D3688779878A87B2
:101580009B87B70180E090E0CBD36C877D878E8707
:101590009F87B80180E090E0C3D3688B798B8A8BFA
:1015A0009B8B1C8A1D8A1E8A1F8A188E198E1A8E82
:1015B0001B8E82E090E0FDD1811105C086E08D8315
:1015C00083E391E004C086E08D838BE191E09F830B
:1015D0008E8380E090E0A8ECB1E48C8F9D8FAE8F7D
:1015E000BF8F1DA21CA21FA21EA24BD968A779A75C
:1015F0008AA79BA7DE0111965D01CD0178D710E285
:1016000025E2E22EFA2C0B2DCE018D961ADA898175
:101610009A8188D9ADA4BEA468A579A58AA59BA501
:10162000BBD9693E73408105910508F4D9C0F50125
:101630008681882309F4D4C0813009F0D7C021D92C
:1016400068A779A78AA79BA78CA19DA1892B09F0E0
:1016500054C1D50114966D917C911597882777FD1B
:101660008095982F5FD32C8D3D8D4E8D5F8DE6D369
:1016700087FF43C1F50164817581882777FD8095D7
:10168000982F50D39B01AC016C8D7D8D8E8D9F8DDD
:1016900049D22B013C01288D398D4A8D5B8D43D277
:1016A0004B015C0120E030E048EC52E4C7D318164F
:1016B0000CF460C120E030E0A901C501B401BED343
:1016C00018161CF0812C912C5401888E998EAA8EAC
:1016D000BB8E288539854A855B85C301B201B2D3AB
:1016E000A3966CAF7DAF8EAF9FAFA3972C853D8542
:1016F0004E855F85C501B401A5D39B01AC01A396BE
:101700006CAD7DAD8EAD9FADA3970DD24B015C014D
:101710002C893D894E895F89C301B20103D2288992
:1017200039894A895B898ED39B01AC01C501B4011B
:10173000FAD14B015C0120E030E048EC52E47ED36A
:1017400018160CF41EC120E030E0A901B401C50157
:1017500075D318160CF41AC1812C912C30E020E0BE
:101760004C8A5D8A6E8A7F8AB401832F922FACD215
:10177000762E8B819C815CD86C8D7D8D8E8D9F8D1E
:101780009ED24B015C01BE01605B7F4F8CA19DA18D
:10179000A5DAF3E56496FFAF649765961FAF65978A
:1017A000E1966EAD7FADE197C40198DA23E46996C6
:1017B0002FAF69976A961FAF6A97E3966EAD7FADBC
:1017C000E397872D90E08ADA6E96EFAE6E976F966C
:1017D0001FAE6F9740E0BE01605B7F4F85E021DB6D
:1017E00089819A81C0D9882309F40ECF60E08B816A
:1017F0009C811ED880E067CC863009F0FBCC8EEF50
:10180000820F843008F0F6CC1286222309F4F2CC41
:101810001581E6962FAFE69734D86D966CAF7DAF05
:101820008EAF9FAF6D97E6962FADE697233081F18F
:1018300030F4213009F458C02230F1F048C025308E
:10184000E9F150F1263009F042C062966EAC7FACEF
:10185000629789E090E0ADD089838DE090E0A9D0D7
:101860008A838EE090E0A5D08B8323E0AE014F5FAA
:101870005F4F60E0C30133C0153648F5612F6696AF
:101880008EAD9FAD6697D4D769961FAF69972CC070
:10189000612F89E090E019C01536C8F4212F30E09F
:1018A000AFEFB3E0B3D024E630E040E050E0E1D069
:1018B0003BBD2ABD612F8DE090E007C017FD07C03A
:1018C000812F7FD6612F8EE090E080D00DC020E088
:1018D00040E050E061E062968EAD9FAD629744D6E5
:1018E00089CC8F5F82877CCC68964EAD5FAD689760
:1018F0004C5F5F4F23E060E0EECF6EA17FA17727C2
:10190000660F771F660F771F8E819F81680F791F83
:1019100044E050E0CE01805B9F4F3BD064968CAD9D
:101920009DADAEADBFAD64972CA13DA12817390781
:1019300071F48EA19FA101969FA38EA32D8130E00B
:101940008217930709F452CF8F2D902FD0D58CA1F9
:101950009DA101969DA38CA328A139A14AA15BA1B9
:101960006C8D7D8D8E8D9F8DDED06C8F7D8F8E8F5B
:101970009F8F80CE812C912C88ECA82E82E4B82EEB
:10198000A4CE812C912C38EC22E4EACE3A2D2B2DDA
:10199000E7CEFB01DC0102C005900D9241505040A2
:1019A000D8F70895FB01DC0105900D920020E1F7C6
:1019B0000895E199FECF9FBB8EBBE09A99278DB326
:1019C0000895A8E1B0E042E050E012C0262FE1996E
:1019D000FECF9FBB8EBB2DBB0FB6F894E29AE19A67
:1019E0000FBE01960895F2DF272FF1CFDC01CB0166
:1019F000FC01E199FECF06C0FFBBEEBBE09A319639
:101A00000DB20D9241505040B8F70895A29FB00119
:101A1000B39FC001A39F01D0B29F700D811D1124FF
:101A2000911D0895AA1BBB1B51E107C0AA1FBB1F34
:101A3000A617B70710F0A61BB70B881F991F5A955A
:101A4000A9F780959095BC01CD01089597FB072ECD
:101A500016F4009406D077FD08D0E4DF07FC05D02B
:101A60003EF4909581959F4F0895709561957F4FB5
:101A70000895A1E21A2EAA1BBB1BFD010DC0AA1FCF
:101A8000BB1FEE1FFF1FA217B307E407F50720F0E7
:101A9000A21BB30BE40BF50B661F771F881F991F62
:101AA0001A9469F760957095809590959B01AC01AB
:101AB000BD01CF0108952F923F924F925F926F9296
:101AC0007F928F929F92AF92BF92CF92DF92EF92CE
:101AD000FF920F931F93CF93DF93CDB7DEB7CA1B4F
:101AE000DB0B0FB6F894DEBF0FBECDBF09942A887A
:101AF000398848885F846E847D848C849B84AA8422
:101B0000B984C884DF80EE80FD800C811B81AA81AE
:101B1000B981CE0FD11D0FB6F894DEBF0FBECDBF79
:101B2000ED0108955058BB27AA270ED04DC13ED1D4
:101B300030F043D120F031F49F3F11F41EF433C153
:101B40000EF4E095E7FB29C1E92F4FD180F3BA17D6
:101B5000620773078407950718F071F49EF567C153
:101B60000EF4E0950B2EBA2FA02D0B01B9019001B8
:101B70000C01CA01A0011124FF27591B99F0593FFC
:101B800050F4503E68F11A16F040A22F232F342F44
:101B90004427585FF3CF469537952795A795F04092
:101BA0005395C9F77EF41F16BA0B620B730B840BA7
:101BB000BAF09150A1F0FF0FBB1F661F771F881F5F
:101BC000C2F70EC0BA0F621F731F841F48F48795B7
:101BD00077956795B795F7959E3F08F0B3CF9395A6
:101BE000880F08F09927EE0F9795879508950CD0E8
:101BF000EBC0E3D040F0DAD030F021F45F3F19F0D1
:101C0000CCC0511115C1CFC0F0D098F39923C9F3BE
:101C10005523B1F3951B550BBB27AA2762177307F2
:101C2000840738F09F5F5F4F220F331F441FAA1FA6
:101C3000A9F333D00E2E3AF0E0E830D09150504066
:101C4000E695001CCAF729D0FE2F27D0660F771F14
:101C5000881FBB1F261737074807AB07B0E809F0F6
:101C6000BB0B802DBF01FF2793585F4F2AF09E3F8B
:101C7000510568F092C0DCC05F3FECF3983EDCF3A6
:101C8000869577956795B795F7959F5FC9F7880F04
:101C9000911D9695879597F90895E1E0660F771F56
:101CA000881FBB1F621773078407BA0720F0621BE7
:101CB000730B840BBA0BEE1F88F7E095089504D0E0
:101CC0006894B111B5C0089598D088F09F5790F0EE
:101CD000B92F9927B751A0F0D1F0660F771F881F51
:101CE000991F1AF0BA95C9F712C0B13081F09FD090
:101CF000B1E008959CC0672F782F8827B85F39F02E
:101D0000B93FCCF3869577956795B395D9F73EF4AF
:101D100090958095709561957F4F8F4F9F4F089557
:101D2000E89409C097FB3EF4909580957095619575
:101D30007F4F8F4F9F4F9923A9F0F92F96E9BB272B
:101D40009395F695879577956795B795F111F8CFA7
:101D5000FAF4BB0F11F460FF1BC06F5F7F4F8F4F12
:101D60009F4F16C0882311F096E911C0772321F008
:101D70009EE8872F762F05C0662371F096E8862FA0
:101D800070E060E02AF09A95660F771F881FDAF7F7
:101D9000880F9695879597F9089597F99F6780E83A
:101DA00070E060E008959FEF80EC089500240A94AD
:101DB0001616170618060906089500240A94121626
:101DC0001306140605060895092E0394000C11F459
:101DD000882352F0BB0F40F4BF2B11F460FF04C006
:101DE0006F5F7F4F8F4F9F4F089557FD9058440F5F
:101DF000551F59F05F3F71F04795880F97FB991F6A
:101E000061F09F3F79F08795089512161306140626
:101E1000551FF2CF4695F1DF08C0161617061806B3
:101E2000991FF1CF86957105610508940895E8948E
:101E3000BB2766277727CB0197F9089566D008F46A
:101E40008FEF08950BD0C0CFB1DF28F0B6DF18F0C8
:101E5000952309F0A2CFA7CF1124EACFC6DFA0F3C4
:101E6000959FD1F3950F50E0551F629FF001729F2F
:101E7000BB27F00DB11D639FAA27F00DB11DAA1F4E
:101E8000649F6627B00DA11D661F829F2227B00D9B
:101E9000A11D621F739FB00DA11D621F839FA00D26
:101EA000611D221F749F3327A00D611D231F849F76
:101EB000600D211D822F762F6A2F11249F575040CD
:101EC0008AF0E1F088234AF0EE0FFF1FBB1F661F68
:101ED000771F881F91505040A9F79E3F510570F021
:101EE0005CCFA6CF5F3FECF3983EDCF38695779509
:101EF0006795B795F795E7959F5FC1F7FE2B880F1C
:101F0000911D9695879597F90895990F0008550F9B
:101F1000AA0BE0E8FEEF16161706E807F907C0F06F
:101F200012161306E407F50798F0621B730B840B77
:101F3000950B39F40A2661F0232B242B252B21F451
:101F400008950A2609F4A140A6958FEF811D811DF1
:101F50000895FB01DC0102C001900D9241505040F8
:081F6000D8F70895F894FFCFB3
:101F68004520312000452032200045203320000044
:00000001FF
