:1000000082C241C79BC230C723C798C297C296C25B
:1000100095C269C793C292C291C290C28FC28EC26A
:100020008DC28CC28BC2C1C852C9CFC97DC9A2C9F9
:10003000ACC921CA3FCA53CA67CA82CAA5CA436F9C
:100040006D6D756E69636174696E67004E6F2062D5
:100050006C7565746F6F746820004C434400546580
:100060006D70206F66667365740050494400526578
:10007000666C6F7700436F6E7472617374004261D7
:10008000636B6C69676874004C65616420667265B7
:1000900065004C65616465640043616E63656C0076
:1000A0005265666C6F77206E6F77004C003E0020C3
:1000B000204C495354454E494E47202020006E00A5
:1000C0006A005E005A002020204F5054494F4E5382
:1000D00020202020007E007500204C4344204F50FB
:1000E00054494F4E53202000202054454D50204F5E
:1000F000464653455420009200880020202050524C
:100100004F46494C452020202000A0009900205255
:1001100045464C4F5720524541445920002020521B
:1001200045464C4F57494E47202020005A00960024
:10013000B400D900C800F000DC00F000F000D900E5
:100140000E0119005A009600B400B400C800D20095
:10015000DC00D200F000B4000E011900202044455C
:100160005249564154495645202000202020494EEE
:10017000544547455220202020002050524F504FD8
:100180005254494F4E414C2000202020434F4E54A2
:10019000524153542020200020204241434B4C49DF
:1001A0004748542020200006090B0D0E1011121391
:1001B00015161717181A1A1B1C1D1D1F1F20212189
:1001C00022232424252626272729292A2A2B2B2CBB
:1001D0002D2E2E2F2F303131323333343535363604
:1001E000373839393A3A3B3B3D3D3E3E3F4040414E
:1001F000424343444545474748494A4A4C4D4D4E82
:100200004F515253545657595B5EF807FE1F061E56
:1002100003338331C330633033301E18FE1FF807B9
:10022000000000000C300C300E30FF3FFF3F00306C
:100230000030003000001C301E38073C033E0337FE
:100240008333C331E33077303E301C300C0C0E1C4E
:100250000738C330C330C330C330C330E7397E1FE3
:100260003C0EC003E003700338031C030E030703B6
:10027000FF3FFF3F000300033F0C7F1C63386330E8
:100280006330633063306330E338C31F830FC00FC4
:10029000F01FF839DC30CE30C730C330C330C3393B
:1002A000801F000F0300030003000330033C030F13
:1002B000C303F3003F000F000300000FBC1FFE3913
:1002C000E730C330C330C330E730FE39BC1F000F06
:1002D0003C007E00E730C330C330C338C31CC30EBC
:1002E000E707FE03FC000000000000000000000023
:1002F00000000000000000000000000000001800E6
:100300003C00660066003C00180000000000000091
:100310000000F003FC0F0E1C0738033003300330DD
:1003200007380E1C0C0C00000000800180018001C9
:100330008001800180018001800100000000000038
:1003400000000000005F00000007000700147F1499
:100350007F14242A7F2A1223130864623649552207
:10036000500005030000001C2241000041221C0037
:1003700014083E081408083E080800503000000821
:1003800008080808006060000020100804023E51C0
:1003900049453E00427F4000426151494621414566
:1003A0004B311814127F1027454545393C4A4949BD
:1003B0003001710905033649494936064949291E64
:1003C00000363600000056360000081422410014A2
:1003D0001414141400412214080201510906324970
:1003E00079413E7E1111117E7F494949363E414196
:1003F00041227F4141221C7F494949417F09090926
:10040000013E4149497A7F0808087F00417F410049
:100410002040413F017F081422417F404040407FFF
:10042000020C027F7F0408107F3E4141413E7F095C
:100430000909063E4151215E7F091929464649496D
:10044000493101017F01013F4040403F1F204020D2
:100450001F3F4038403F63140814630708700807C3
:100460006151494543007F414100020408102000CA
:1004700041417F000402010204404040404000012D
:1004800002040020545454787F484444383844448B
:100490004420384444487F3854545418087E090195
:1004A000020C5252523E7F0804047800447D400002
:1004B0002040443D007F1028440000417F40007CE4
:1004C000041804787C0804047838444444387C14C4
:1004D000141408081414187C7C08040408485454A4
:1004E0005420043F4440203C4040207C1C204020BD
:1004F0001C3C4030403C44281028440C5050503C98
:100500004464544C440011241FBECFE5D4E0DEBF48
:10051000CDBF10E0A0E6B0E0EAEDFEE102C005903C
:100520000D92A037B107D9F710E0A0E7B0E001C005
:100530001D92A737B107E1F733D5CDCC61CDAA9A8B
:10054000A8988FB9779BFECFA89A08950F931F9311
:10055000CF93DF9300D000D0CDB7DEB78C01FC0184
:1005600061A172A17727660F771F660F771F8581BC
:100570009681680F791F44E050E0CE0101962CDA95
:1005800049815A816B817C81F801838D948D9B0117
:10059000281B390BC901278D30A1BA01621B730BCF
:1005A00097DA768F658F0F900F900F900F90DF91F5
:1005B000CF911F910F9108950F931F93CF93DF93C6
:1005C0008C01CA01F8016583C22FD0E0222329F0F3
:1005D000AE01BC01C80106966EDC90E02596292F7D
:1005E00030E0C217D3074CF05D9BFECFF801E20F5D
:1005F000F31F80818CB99F5FF2CFDF91CF911F9164
:100600000F910895AA98A8988FB9779BFECFA89AC2
:100610000895CF93C82F81E2F5DF8C2F8068F2DF39
:1006200080E2CF91EFCFCF92DF92EF92FF920F93C4
:100630001F93CF93DF93CDB7DEB766970FB6F894CD
:10064000DEBF0FBECDBF082F162F86E1489FA00149
:100650001124BA01665F7D4F46E150E0CE0101965C
:10066000BBD90068802FCEDF812F8064CBDFFE01F5
:1006700031967F016E01F7E1CF0ED11CF701808129
:100680005EDFF2E0EF0EF11CEC14FD04B9F780E040
:1006900056DF802FB7DF81E0810F8064B3DF00E099
:1006A00010E0E1E0F0E0EC0FFD1FE00FF11F8181B1
:1006B00046DF0E5F1F4F0631110599F780E03FDFDF
:1006C00066960FB6F894DEBF0FBECDBFDF91CF9117
:1006D0001F910F91FF90EF90DF90CF900895EF92D0
:1006E000FF921F93CF93DF93D82F162F9A01CA0141
:1006F00064E670E0EDD9662311F0462F01C04AE0B0
:10070000C90164E670E0E4D97C016AE070E0E0D9F8
:100710006115710521F44A3021F0C0E003C0C62FF5
:1007200001C0CAE0612F8D2F7EDF4C2F612F8CE03E
:100730008D0F79DFC7016AE070E0CAD9482F612FB9
:1007400088E18D0FDF91CF911F91FF90EF906BCFDC
:10075000CF93DF93EC01488550E06F818E81BFDF3E
:100760008D818D3079F4288530E0AFEFB3E0A4D9E6
:1007700024E630E040E050E0D2D93BBD2ABDDF9115
:10078000CF9108958885DF91CF9143CFFF920F934A
:100790001F93CF93DF9300D000D000D0CDB7DEB74A
:1007A000F62E90E0809745E0489F9001499F300DDC
:1007B0001124B901625C7C4F45E050E08E010F5F6F
:1007C0001F4FC80109D91E82F11006C0AA9AA89825
:1007D000F801CE0107960BC0F80196E0900F8081DA
:1007E000809581939E13FBCFF1CF779BFECFE817C7
:1007F000F90719F021912FB9F8CFA89A26960FB6CC
:10080000F894DEBF0FBECDBFDF91CF911F910F9146
:10081000FF900895AF92BF92DF92EF92FF920F93F5
:100820001F93CF93DF93CDB7DEB72D970FB6F89414
:10083000DEBF0FBECDBF7C0110E002E0010FF7016B
:100840009781191748F5F70195818681E92FF82FCF
:10085000E10FF11DE10FF11D65917491CE0101963B
:10086000C4D8DD24D394F70180851813D12C802FB0
:100870008064C8DECE0101965C0100E0802F8068B4
:10088000C1DE0A5FF50181915F01882319F06D2DAA
:100890007DDFF4CF1F5FD1CF2D960FB6F894DEBF6A
:1008A0000FBECDBFDF91CF911F910F91FF90EF90C1
:1008B000DF90BF90AF9008951F93CF93DF93EB012C
:1008C00080E4A0DE10E0812F80689CDE1A5FFE01CC
:1008D0008491882321F0219661E058DFF4CFDF91E5
:1008E000CF911F9108950F931F93CF93DF93182FEC
:1008F000062FEA0157FF06C04DE095DED195C19560
:10090000D10902C04AE08FDEAE01602F8CE0810F7A
:10091000DF91CF911F910F91E2CECF93CCEF80E08A
:100920000EDEC150E1F7CCEF80E009DEC150E1F707
:10093000CF910895FC0199278799939581E09111B2
:1009400001C080E0918191110EC0908191110BC086
:10095000882349F0992786999395992311F091E07E
:1009600001C09FEF918380830895CF93DF93EC01C3
:10097000E62F8FEF860F833628F4E62FF0E0EA5556
:10098000FE4FE491F89464E670E09B012E1B310960
:1009900042E4429FC001439F900D1124ADD869836A
:1009A000E8837894DF91CF91089590E050D8883E05
:1009B00023E0920710F087EE93E00895F894609199
:1009C000720070917300809174009091750078941A
:1009D00008950F931F93CF93DF93EC01798368837E
:1009E0005B834A830C831D832E833F83B901089662
:1009F00063DF188682E08987802FD7DF9B878A870D
:100A0000AC0162E080E06BDED9DF6C877D878E878A
:100A10009F87DF91CF911F910F910895EF920F93D0
:100A2000CF93DF93EC01798368835B834A833E83B2
:100A30002D830F83EC828E2D90E001D8801710F467
:100A4000888701C01886BADF69877A878B879C8779
:100A5000CE01DF91CF910F91EF90DCCECF92DF925C
:100A6000EF92FF921F93CF93DF93EC018827B09909
:100A7000839511E0811101C010E0A0DFCB80DC8004
:100A8000ED80FE806C157D058E059F05C9F06B839A
:100A90007C838D839E8328813981220F331F306EA2
:100AA000212B398328832115304F51F48A818111FC
:100AB00007C084DF6F83788789879A8781E08A837C
:100AC000DF91CF911F91FF90EF90DF90CF9008952D
:100AD000CF92DF92EF92FF926B017C016FDF6C1976
:100AE0007D098E099F09FF90EF90DF90CF900895C8
:100AF000CF93DF93EC0169857A858B859C85E8DF50
:100B0000693873418105910590F58881998112DFDB
:100B10008A819B81A3DFE881F98181811182882309
:100B200041F1282F332727FD3095488587FF0AC0DC
:100B3000319521953109642F70E0621773076CF4C9
:100B400018860DC09F81240F311D692F70E0261774
:100B500037071CF09150988702C0840F88872EDFDA
:100B600069877A878B879C87CE0154DE02C080E03C
:100B700001C081E0DF91CF910895AF92BF92CF92F3
:100B8000DF92EF92FF920F931F93CF93DF938C012D
:100B9000DC01CD91DC91688179818A819B8198DF2C
:100BA000693C71058105910508F48CC0C29824E068
:100BB00080E090E0DC011FB8779BFECFBA2FA92F11
:100BC000982F88273FB1832B2150A9F7C29A80FF25
:100BD00002C084E007C081FF02C083E003C082FF3F
:100BE00003C082E08E8332C06C017D0122E1F69465
:100BF000E794D794C7942A95D1F7B7FF05C0B0EC16
:100C0000DB2AEE24EA94FE2C82E0F694E794D79453
:100C1000C7948A95D1F7DD82CC8281E08E8389E00A
:100C200090E00DD7282F332727FD309587FF07C089
:100C300088279927821B930BC816D9062CF0C20E61
:100C4000D31EDD82CC8202C01D821C82B7DE688387
:100C500079838A839B83D801ED91FC9186818230D0
:100C600009F1C8F4813071F54481558162E080E07A
:100C700036DD4BE062E084E2D6DC4CE062E080E30B
:100C8000DF91CF911F910F91FF90EF90DF90CF9068
:100C9000BF90AF90C8CC833041F0843099F48AE69D
:100CA00090E005C080E690E002C085E690E0DF912C
:100CB000CF911F910F91FF90EF90DF90CF90BF9059
:100CC000AF9042C1DF91CF911F910F91FF90EF90B4
:100CD000DF90CF90BF90AF900895FC012281222336
:100CE00069F012826781708581859285F1DE21E04D
:100CF0006B3F71058105910508F020E0822F089572
:100D0000CF93DF93EC018881998114DE8A819B81E6
:100D1000A5DEE881F981918111829923E1F088852E
:100D200097FF0CC0482F50E0692F772761950CF48E
:100D300070954617570714F4188606C0890F9C81D2
:100D4000891708F4982F9887CE0102DD37DE69876E
:100D50007A878B879C8769857A858B859C85B8DEA9
:100D6000613177428105910548F48A819B81B5DF25
:100D7000882349F28D81688590E06ED680E0DF910E
:100D8000CF910895CF93DF93EC0188819981D2DDD3
:100D90008A819B8163DEE881F9812181118222238E
:100DA00031F1822F992787FD90954A855B8527FF32
:100DB0000AC022273327281B390B421753071CF47C
:100DC0001B861A860AC0840F951F883E23E092076F
:100DD00010F087EE93E09B878A874A855B8569855B
:100DE00088857DDCEBDD6C877D878E879F876C85B2
:100DF0007D858E859F856CDE6938734181059105FF
:100E000068F48A819B8169DF882309F4BECF6A85F3
:100E10007B858C8190E02DD68D8101C080E0DF91B3
:100E2000CF9108951F93CF93DF93EC018885FB0149
:100E300080838A819B8151DF182F882321F08C8148
:100E4000688590E009D6812FDF91CF911F91089599
:100E50001F920F920FB60F921124939815BC0F900A
:100E60000FBE0F901F9018951F920F920FB60F9202
:100E700011248F93939A8CEF84BD8F910F900FBEA6
:100E80000F901F9018951F920F920FB60F9211247A
:100E90008F93EF93FF93E0917000F0917100808148
:100EA000882339F08081843631F08181882319F0DC
:100EB00009C0939810C0939A818183BD14BC87E0C8
:100EC00085BD09C081818334B8F381818F3488F76F
:100ED00082E48183F1CFFF91EF918F910F900FBE4C
:100EE0000F901F9018951F920F920FB60F9211241A
:100EF0008F939F93AF93BF93809176008F5F809382
:100F0000760080917600837099F4809172009091C0
:100F10007300A0917400B09175000196A11DB11DE0
:100F20008093720090937300A0937400B093750047
:100F300082B78A5F82BFBF91AF919F918F910F90CF
:100F40000FBE0F901F901895EF92FF920F931F9373
:100F5000CF93DF931F92CDB7DEB7182F80E8998328
:100F600051DB82E44FDB012FE12E9981F92E1E2DFA
:100F7000101BF70181917F01882319F060E006DCE6
:100F8000F6CF1C3028F460E080E200DC1F5FF9CF70
:100F90000F90DF91CF911F910F91FF90EF900895E7
:100FA000CF93DF93CDB7DEB7CA56D1090FB6F89409
:100FB000DEBF0FBECDBFF89480E090E048D5853508
:100FC0009A4A61F160E082E090E046D560E08AE014
:100FD00090E042D560E08BE090E03ED565E070E0C7
:100FE00083E090E046D563E070E085E090E041D595
:100FF00063E070E087E090E03CD560E089E090E05D
:101000002BD564E68DE090E027D560E58EE090E09A
:1010100023D565E57AEA80E090E02BD58FEE98ED58
:10102000AFEFBFEF8BA79CA7ADA7BEA719AA18AAC1
:101030001FA61BAA1AAA82E390E08C0F9D1F909313
:1010400071008093700015BC89B7806C89BF1EAE9B
:1010500010BC83E389B91BB888E18AB986E880BDF2
:101060001FAE21961FAE21978FEF9FEF23969FAF64
:101070008EAF239728961CAE1DAE1EAE1FAE2897CE
:1010800024961FAE249780E58DB9709A8EB18FB1EA
:10109000899A8898909AA29AB99A1BBC1ABC83E83C
:1010A0008FBD82E08EBDA19AA09AA89ABA9AC29AE0
:1010B000BC98BB9ABD9A8A9885BF80E48BBF8B9AF7
:1010C00093988F988E98979A969AB898C09A8D9A76
:1010D000959883B7826083BF89B7816089BFA99AD9
:1010E0006DDCDC01CB018396A11DB11D0091720066
:1010F0001091730020917400309175000817190742
:101100002A073B0798F3A99859DCDC01CB0102962A
:10111000A11DB11D00917200109173002091740007
:1011200030917500081719072A073B0798F3A99A09
:1011300081E268DA84E166DA84E064DA80E262DA25
:101140008CE060DA8EE090E07AD487FF05C060E53D
:101150008EE090E081D480E55CDADFDB78948DE08E
:1011600090E06DD4282F30E0AFEFB3E0A5D424E6B3
:1011700030E040E050E0D3D43BBD2ABD80E0BBE28C
:10118000CB2ED12CCC0EDD1E96E1C90ED11C1E013A
:10119000AFE32A0E311C082F10E0BFDB0C30110525
:1011A000E0F7F801ED5EFF4F0994CE01C4969A83F3
:1011B0008983DC82CB82E2E3F0E0EC0FFD1FFE834B
:1011C000ED836FEA70E08D9777DB8BE290E08C0F18
:1011D0009D1F98878F838BEA90E09B878A878FEF8C
:1011E000898795988FEE98EDAFEFBFEF8C879D873D
:1011F000AE87BF8710E0CE010796BFDC8985181740
:10120000E1F01987E12FF0E0EE0FFF1F8A859B8543
:10121000E80FF91F0591149185E4F4D9F12C8F2D75
:101220008068F0D996E0F90EF8018491882329F0BE
:101230000F5F1F4F60E0AADAF2CF8B819C810EDC3A
:10124000E981FA8182858A3038F55F9B25C09CB19F
:10125000DF01A80FB11D9C931281811104C0908100
:101260009A3A79F47DC2813021F49181953549F41F
:1012700077C2823009F074C29FEF910F963008F464
:101280006FC212868285853009F000C2113009F4E0
:1012900005C2163009F402C26C857D858E859F8556
:1012A00017DC693873418105910518F4959A11E0AE
:1012B000A2CF95988B819C8110DD882309F49ACF69
:1012C00060E08D819E8151DB959881E064CF66EC72
:1012D00070E0CE010196F0DA7AE0E72E04E02EEB22
:1012E00030E0A601B101CE01019698DBCE01019656
:1012F000FFDB882309F4C8C1BE01645B7F4FCE01C8
:10130000019690DD882391F32D968FAD2D97813036
:1013100029F040F0833021F483E03DCF87E03BCFDC
:1013200082E039CF86E037CF69ED70E0CE010196DB
:10133000C3DA6CE0E62E02E025ED30E0A601B10153
:10134000CE0101966BDBCE010196D2DB882309F436
:101350009BC1BE01645B7F4FCE01019663DD882394
:1013600091F32D968FAD2D97882311F085E013CF43
:1013700084E011CF3A822982DC82CB8284E68D839D
:101380008DE08E8368E971E00AC03A822982DC82AE
:10139000CB828FE78D838EE08E8369E871E0CE018A
:1013A00007968ADA1F8282E088878E8190E047D391
:1013B0008987CE010196CCD901DB6A877B878C8730
:1013C0009D87CE0101969CDCE6CE3A822982DC82A2
:1013D000CB8268EE70E0CE0105966EDA1D8282E067
:1013E0008E8389E090E02BD38F83482F552747FDCC
:1013F000509562E080E077DAE1DA688779878A875A
:101400009B871DE903E689819A8194DA8B819C810F
:1014100025DBE981FA81918111829923B9F08F81CD
:10142000890F843614F00F8305C08D3914F08F8333
:1014300001C01F834F81552747FD50956E818D81D7
:1014400052DABCDA688779878A879B8768857985CD
:101450008A859B853DDB613375478105910508F0E1
:1014600013C18B819C8139DC882369F26F8189E00B
:1014700090E0F2D209C16BEF70E0CE0101961CDA68
:1014800052E0E52E02E027EF30E0A601B101CE01E7
:101490000196C4DACE0101962BDB882309F4F4C04F
:1014A000BE01645B7F4FCE010196BCDC882391F3C3
:1014B0008AE071CE83E06C968FAF6C9798E06D9662
:1014C0009FAF6D97AAE7B1E06F96BFAFAEAF6F97D2
:1014D0006F960CAD1DAD2EAD3FAD6F9728C0B5E03A
:1014E000A096BFAFA097E9E0A196EFAFA1978BE6DA
:1014F00091E0A3969FAF8EAFA397A3960CAD1DADC1
:101500002EAD3FADA39713C097E0A4969FAFA497CD
:10151000A5961FAEA597ACE5B1E0A796BFAFAEAF5D
:10152000A797A7960CAD1DAD2EAD3FADA797A60111
:10153000B101CE0101964DDACE01019623DC2BCE0E
:101540006EE071E0CE010196B7D94BE0E42E02E0E7
:101550002AE031E0A601B101CE0101965FDACE01A9
:101560000196C6DA882309F48FC0BE01645B7F4F01
:10157000CE01019657DC882391F32D968FAD2D97E0
:10158000811182C08BE007CEDA82C982E2E3F0E00B
:10159000EC0FFD1FFC83EB836DE171E0CE018996BA
:1015A0008BD98BE290E08C0F9D1F9AA789A783E0CF
:1015B000FCD94C0185E0F9D95C0187E0F6D98C01B2
:1015C000B40180E090E05ED3688779878A879B8743
:1015D000B50180E090E056D36C877D878E879F872A
:1015E000B80180E090E04ED3688B798B8A8B9B8B1F
:1015F0001C8A1D8A1E8A1F8A188E198E1A8E1B8EAF
:1016000082E090E01CD2811105C086E08D8384E4E5
:1016100091E004C086E08D838CE291E09F838E830D
:1016200089E190E09D8F8C8F19A218A21BA21AA2AB
:10163000C5D96CA37DA38EA39FA3CE01019686D7A7
:1016400023E7F22E03E435E2E32ECE01899695DA04
:1016500089819A8103DAA9A4BAA46CA17DA18EA183
:101660009FA136DA693E73408105910520F0F501AE
:10167000868181117FC089819A812FDB882329F39C
:1016800060E08B819C8171D980E085CD863009F046
:1016900003CE8EEF810F843008F0FECD1286112329
:1016A00009F4FACD05818AD96C877D878E879F875B
:1016B000133079F130F4113009F455C0123011F1C2
:1016C00047C01530E1F148F1163009F041C00981F9
:1016D0001A8189E090E0B3D12D968FAF2D978DE0E0
:1016E00090E0ADD12E968FAF2E978EE090E0A7D1EF
:1016F0002F968FAF2F9723E0AE01445B5F4F60E0E2
:10170000C8012CC0053620F5602F8D819E812DD912
:101710002AC0602F89E090E019C00536C8F4202F58
:1017200030E0AFEFB3E0C8D124E630E040E050E075
:10173000F6D13BBD2ABD602F8DE090E007C007FDCC
:1017400007C0802F66D7602F8EE090E085D10BC058
:1017500020E040E050E061E089819A812DD79CCD66
:101760008F5F82878FCD4F8158854C5F5F4F23E01D
:1017700060E0F2CF813009F083CF20D96CA37DA344
:101780008EA39FA388A199A1892B51F4D50114960A
:101790002D913C9115978C8D9D8D28173907BCF1A3
:1017A0006AA17BA17727660F771F660F771F8E814F
:1017B0009F81680F791F44E050E0CE01845B9F4F0A
:1017C0000BD160968CAD9DADAEADBFAD609728A13D
:1017D00039A12817390771F48AA19BA101969BA30F
:1017E0008AA32D8130E08217930709F449CFCE01F7
:1017F0000196ACD688A199A1019699A388A32C8DB6
:101800003D8D8E8D9F8D820F931F9D8F8C8F6C8D44
:101810007D8D882777FD8095982F36D22B013C014E
:10182000F50164817581882777FD8095982F2CD2EA
:101830009B01AC01C301B20194D12B013C01288D65
:10184000398D4A8D5B8D8ED14B015C0120E030E0FB
:1018500048EC52E4A5D2181664F020E030E0A9016B
:10186000C501B4019DD2181654F0812C912C54015D
:1018700006C0812C912C88ECA82E82E4B82E888E8C
:10188000998EAA8EBB8E288539854A855B85C301D2
:10189000B2018AD2AB966CAF7DAF8EAF9FAFAB97E4
:1018A0002C853D854E855F85C501B4017DD29B01A8
:1018B000AC01AB966CAD7DAD8EAD9FADAB9752D10B
:1018C0004B015C012C893D894E895F89C301B201BE
:1018D00048D1288939894A895B8966D29B01AC0144
:1018E000C501B4013FD14B015C0120E030E048EC80
:1018F00052E456D218166CF020E030E0A901B40191
:10190000C5014ED2181654F0812C912C30E020E005
:1019100007C0812C912C38EC22E402C03A2D2B2DEB
:101920004C8A5D8A6E8A7F8AB401832F922F7ED182
:10193000562E8B819C8119D88C8C9D8CA8A0B9A027
:101940004EE050E060E270E0CE01845B9F4FBCD27D
:101950004AE0BE01645B7F4FC5014ED0CE01845B7F
:101960009F4F5C01FC01019620812111FBCFF08289
:101970003F0192E0690E711C4AE0B301C4013CD002
:10198000F301AFEF6A1A7A0A80818111F9CF0083DF
:101990004F01B2E08B0E911C4AE0B401852D90E01E
:1019A0002BD0F4012FEF821A920A80818111F9CF96
:1019B000E0826B961FAE6B9785E424D610E0812FF2
:1019C000806820D61A5FD5018D915D01882309F4C6
:1019D00052CE60E0DBD6F3CFFB01DC0102C0059004
:1019E0000D9241505040D8F70895FB01DC0105905D
:1019F0000D920020E1F70895BB274A3031F4992376
:101A000022F4BDE2909581959F4F01C0BB27FB0159
:101A10005527AA27880F991FAA1FA41710F0A41BE7
:101A200083955051B9F7A05DAA3308F0A95DA19341
:101A3000009779F7B111B1931192CB011DC0E199D3
:101A4000FECF9FBB8EBBE09A99278DB30895A8E186
:101A5000B0E042E050E022C0262FE199FECF9FBBCC
:101A60008EBB2DBB0FB6F894E29AE19A0FBE019699
:101A70000895F2DF272FF1CFDC01FC01672F719170
:101A80007723E1F7329704C07C916D937083629164
:101A9000AE17BF07C8F30895DC01CB01FC01E19943
:101AA000FECF06C0FFBBEEBBE09A31960DB20D92A1
:101AB00041505040B8F70895A29FB001B39FC001B4
:101AC000A39F01D0B29F700D811D1124911D089517
:101AD000AA1BBB1B51E107C0AA1FBB1FA617B70754
:101AE00010F0A61BB70B881F991F5A95A9F7809570
:101AF0009095BC01CD01089597FB072E16F4009434
:101B000006D077FD08D0E4DF07FC05D03EF49095C1
:101B100081959F4F0895709561957F4F0895A1E23B
:101B20001A2EAA1BBB1BFD010DC0AA1FBB1FEE1F57
:101B3000FF1FA217B307E407F50720F0A21BB30BA2
:101B4000E40BF50B661F771F881F991F1A9469F71E
:101B500060957095809590959B01AC01BD01CF017A
:101B600008955058BB27AA270ED0E0C0D1D030F03E
:101B7000D6D020F031F49F3F11F41EF4C6C00EF40D
:101B8000E095E7FBBCC0E92FE2D080F3BA1762070B
:101B900073078407950718F071F49EF5FAC00EF4E8
:101BA000E0950B2EBA2FA02D0B01B90190010C016D
:101BB000CA01A0011124FF27591B99F0593F50F485
:101BC000503E68F11A16F040A22F232F342F4427DD
:101BD000585FF3CF469537952795A795F0405395D5
:101BE000C9F77EF41F16BA0B620B730B840BBAF0A5
:101BF0009150A1F0FF0FBB1F661F771F881FC2F710
:101C00000EC0BA0F621F731F841F48F48795779523
:101C10006795B795F7959E3F08F0B3CF9395880FDA
:101C200008F09927EE0F97958795089598D088F03A
:101C30009F5790F0B92F9927B751A0F0D1F0660FB8
:101C4000771F881F991F1AF0BA95C9F712C0B130D3
:101C500081F09FD0B1E008959CC0672F782F88272E
:101C6000B85F39F0B93FCCF3869577956795B39512
:101C7000D9F73EF490958095709561957F4F8F4F81
:101C80009F4F0895E89409C097FB3EF49095809586
:101C9000709561957F4F8F4F9F4F9923A9F0F92F32
:101CA00096E9BB279395F695879577956795B795B0
:101CB000F111F8CFFAF4BB0F11F460FF1BC06F5F96
:101CC0007F4F8F4F9F4F16C0882311F096E911C0A8
:101CD000772321F09EE8872F762F05C0662371F0C9
:101CE00096E8862F70E060E02AF09A95660F771FDD
:101CF000881FDAF7880F9695879597F9089597F9D1
:101D00009F6780E870E060E008959FEF80EC0895A1
:101D100000240A94161617061806090608950024CA
:101D20000A9412161306140605060895092E039444
:101D3000000C11F4882352F0BB0F40F4BF2B11F4B8
:101D400060FF04C06F5F7F4F8F4F9F4F089557FD17
:101D50009058440F551F59F05F3F71F04795880F19
:101D600097FB991F61F09F3F79F0879508951216B0
:101D700013061406551FF2CF4695F1DF08C016165C
:101D800017061806991FF1CF86957105610508940D
:101D90000895E894BB2766277727CB0197F9089524
:101DA00066D008F48FEF08950BD0C0CFB1DF28F0D4
:101DB000B6DF18F0952309F0A2CFA7CF1124EACF00
:101DC000C6DFA0F3959FD1F3950F50E0551F629F9A
:101DD000F001729FBB27F00DB11D639FAA27F00D84
:101DE000B11DAA1F649F6627B00DA11D661F829FAB
:101DF0002227B00DA11D621F739FB00DA11D621F90
:101E0000839FA00D611D221F749F3327A00D611DAC
:101E1000231F849F600D211D822F762F6A2F11248E
:101E20009F5750408AF0E1F088234AF0EE0FFF1FE1
:101E3000BB1F661F771F881F91505040A9F79E3F18
:101E4000510570F05CCFA6CF5F3FECF3983EDCF31A
:101E5000869577956795B795F795E7959F5FC1F755
:101E6000FE2B880F911D9695879597F90895990FE8
:101E70000008550FAA0BE0E8FEEF16161706E80754
:101E8000F907C0F012161306E407F50798F0621B75
:101E9000730B840B950B39F40A2661F0232B242B4A
:101EA000252B21F408950A2609F4A140A6958FEF69
:101EB000811D811D0895FB01DC0102C001900D927E
:101EC00041505040D8F70895DC0101C06D93415056
:0A1ED0005040E0F70895F894FFCFAA
:101EDA0045203120004520322000452033200000D3
:00000001FF
