:1000000032C211C74BC200C7F3C648C247C246C27C
:1000100045C239C743C242C241C240C23FC23EC2CA
:100020003DC23CC23BC299C82AC9A7C955C97AC9B1
:1000300084C9F9C917CA2BCA3FCA5ACA7DCA434FD5
:100040004D4D554E49434154494E47004E4F204275
:100050004C5545544F4F544820004C4344005445A0
:100060004D50204F46465345540050494400524598
:10007000464C4F5700434F4E545241535400424157
:10008000434B4C49474854004C4541442046524557
:1000900045004C45414445440043414E43454C00D6
:1000A0005245464C4F57204E4F57004C003E0020C3
:1000B000204C495354454E494E47202020006E00A5
:1000C0006A005E005A002020204F5054494F4E5382
:1000D00020202020007E007500204C4344204F50FB
:1000E00054494F4E53202000202054454D50204F5E
:1000F000464653455420009200880020202050524C
:100100004F46494C452020202000A0009900205255
:1001100045464C4F5720524541445920002020521B
:1001200045464C4F57494E47202020005A00960024
:10013000B400D900C800F000DC00F000F000D900E5
:100140000E0119005A009600B400B400C800D20095
:10015000DC00D200F000B4000E011900202044455C
:100160005249564154495645202000202020494EEE
:10017000544547455220202020002050524F504FD8
:100180005254494F4E414C2000202020434F4E54A2
:10019000524153542020200020204241434B4C49DF
:1001A0004748542020200006090B0D0E1011121391
:1001B00015161717181A1A1B1C1D1D1F1F20212189
:1001C00022232424252626272729292A2A2B2B2CBB
:1001D0002D2E2E2F2F303131323333343535363604
:1001E000373839393A3A3B3B3D3D3E3E3F4040414E
:1001F000424343444545474748494A4A4C4D4D4E82
:100200004F515253545657595B5EF807FE1F061E56
:1002100003338331C330633033301E18FE1FF807B9
:10022000000000000C300C300E30FF3FFF3F00306C
:100230000030003000001C301E38073C033E0337FE
:100240008333C331E33077303E301C300C0C0E1C4E
:100250000738C330C330C330C330C330E7397E1FE3
:100260003C0EC003E003700338031C030E030703B6
:10027000FF3FFF3F000300033F0C7F1C63386330E8
:100280006330633063306330E338C31F830FC00FC4
:10029000F01FF839DC30CE30C730C330C330C3393B
:1002A000801F000F0300030003000330033C030F13
:1002B000C303F3003F000F000300000FBC1FFE3913
:1002C000E730C330C330C330E730FE39BC1F000F06
:1002D0003C007E00E730C330C330C338C31CC30EBC
:1002E000E707FE03FC000000000000000000000023
:1002F00000000000000000000000000000001800E6
:100300003C00660066003C00180000000000000091
:100310000000F003FC0F0E1C0738033003300330DD
:1003200007380E1C0C0C00000000800180018001C9
:100330008001800180018001800100000000000038
:1003400000000000005F00000007000700147F1499
:100350007F14242A7F2A1223130864623649552207
:10036000500005030000001C2241000041221C0037
:1003700014083E081408083E080800503000000821
:1003800008080808006060000020100804023E51C0
:1003900049453E00427F4000426151494621414566
:1003A0004B311814127F1027454545393C4A4949BD
:1003B0003001710905033649494936064949291E64
:1003C00000363600000056360000081422410014A2
:1003D0001414141400412214080201510906324970
:1003E00079413E7E1111117E7F494949363E414196
:1003F00041227F4141221C7F494949417F09090926
:10040000013E4149497A7F0808087F00417F410049
:100410002040413F017F081422417F404040407FFF
:10042000020C027F7F0408107F3E4141413E7F095C
:100430000909063E4151215E7F091929464649496D
:10044000493101017F01013F4040403F1F204020D2
:100450001F3F4038403F63140814630708700807C3
:1004600061514945430011241FBECFE5D4E0DEBFF2
:10047000CDBF10E0A0E6B0E0EEE7FFE102C00590DE
:100480000D92A037B107D9F710E0A0E7B0E001C0A6
:100490001D92A737B107E1F753D56FCDB1CDAA9A19
:1004A000A8988FB9779BFECFA89A08958F929F92B4
:1004B000AF92BF92CF92DF92EF92FF920F931F9372
:1004C000CF93DF9300D000D0CDB7DEB78C01FC0115
:1004D00065A176A17727660F771F660F771F858145
:1004E0009681680F791F44E050E0CE01019659DAF9
:1004F000C980DA80EB80FC80B70180E090E014DCFA
:10050000F801238D348D458D568D10DB4B015C0138
:10051000F80183A194A1C81AD90AB60180E090E03D
:1005200003DC9B01AC01C501B40165DBF801678FF9
:1005300070A381A392A30F900F900F900F90DF9163
:10054000CF911F910F91FF90EF90DF90CF90BF90D0
:10055000AF909F908F9008950F931F93CF93DF9349
:100560008C01CA01F8016583C22FD0E0222329F053
:10057000AE01BC01C8010696F0DC90E02596292F5B
:1005800030E0C217D3074CF05D9BFECFF801E20FBD
:10059000F31F80818CB99F5FF2CFDF91CF911F91C4
:1005A0000F910895AA98A8988FB9779BFECFA89A23
:1005B0000895CF93C82F81E2F5DF8C2F8068F2DF9A
:1005C00080E2CF91EFCFCF92DF92EF92FF920F9325
:1005D0001F93CF93DF93CDB7DEB766970FB6F8942E
:1005E000DEBF0FBECDBF082F162F86E1489FA001AA
:1005F0001124BA01665F7D4F46E150E0CE010196BD
:10060000D0D90068802FCEDF812F8064CBDFFE0140
:1006100031967F016E01F7E1CF0ED11CF701808189
:100620003EDFF2E0EF0EF11CEC14FD04B9F780E0C0
:1006300036DF802FB7DF81E0810F8064B3DF00E019
:1006400010E0E1E0F0E0EC0FFD1FE00FF11F818111
:1006500026DF0E5F1F4F0631110599F780E01FDF7F
:1006600066960FB6F894DEBF0FBECDBFDF91CF9177
:100670001F910F91FF90EF90DF90CF900895EF9230
:10068000FF921F93CF93DF93D82F162F9A01CA01A1
:1006900064E670E002DA662311F0462F01C04AE0FA
:1006A000C90164E670E0F9D97C016AE070E0F5D92F
:1006B0006115710521F44A3021F0C0E003C0C62F56
:1006C00001C0CAE0612F8D2F7EDF4C2F612F8CE09F
:1006D0008D0F79DFC7016AE070E0DFD9482F612F05
:1006E00088E18D0FDF91CF911F91FF90EF906BCF3D
:1006F000CF93DF93EC01488550E06F818E81BFDF9F
:100700008D818D3079F4288530E0AFEFB3E0B9D931
:1007100024E630E040E050E0E7D93BBD2ABDDF9160
:10072000CF9108958885DF91CF9143CFFF920F93AA
:100730001F93CF93DF9300D000D000D0CDB7DEB7AA
:10074000F62E90E0809745E0489F9001499F300D3C
:100750001124B901625C7C4F45E050E08E010F5FCF
:100760001F4FC8011ED91E82F11006C0AA9AA89870
:10077000F801CE0107960BC0F80196E0900F80813A
:10078000809581939E13FBCFF1CF779BFECFE81727
:10079000F90719F021912FB9F8CFA89A26960FB62C
:1007A000F894DEBF0FBECDBFDF91CF911F910F91A7
:1007B000FF900895AF92BF92DF92EF92FF920F9356
:1007C0001F93CF93DF93CDB7DEB72D970FB6F89475
:1007D000DEBF0FBECDBF7C0110E002E0010FF701CC
:1007E0009781191748F5F70195818681E92FF82F30
:1007F000E10FF11DE10FF11D65917491CE0101969C
:10080000D9D8DD24D394F70180851813D12C802FFB
:100810008064C8DECE0101965C0100E0802F806814
:10082000C1DE0A5FF50181915F01882319F06D2D0A
:100830007DDFF4CF1F5FD1CF2D960FB6F894DEBFCA
:100840000FBECDBFDF91CF911F910F91FF90EF9021
:10085000DF90BF90AF9008951F93CF93DF93EB018C
:1008600080E4A0DE10E0812F80689CDE1A5FFE012C
:100870008491882321F0219661E058DFF4CFDF9145
:10088000CF911F9108950F931F93CF93DF93182F4C
:10089000062FEA0157FF06C04DE095DED195C195C0
:1008A000D10902C04AE08FDEAE01602F8CE0810FDB
:1008B000DF91CF911F910F91E2CECF93CCEF80E0EB
:1008C000EEDDC150E1F7CCEF80E0E9DDC150E1F7AA
:1008D000CF910895FC0199278799939581E0911113
:1008E00001C080E0918191110EC0908191110BC0E7
:1008F000882349F0992786999395992311F091E0DF
:1009000001C09FEF918380830895CF93DF93EC0123
:10091000E62F8FEF860F833628F4E62FF0E0EA55B6
:10092000FE4FE491F89464E670E09B012E1B3109C0
:1009300042E4429FC001439F900D1124C2D86983B5
:10094000E8837894DF91CF91089590E065D8883E50
:1009500023E0920710F087EE93E00895F8946091F9
:10096000720070917300809174009091750078947A
:1009700008950F931F93CF93DF93EC0179836883DE
:100980005B834A830C831D832E833F83B9010896C2
:1009900063DF188682E08987802FD7DF9B878A876D
:1009A000AC0162E080E06BDED9DF6C877D878E87EB
:1009B0009F87DF91CF911F910F910895EF920F9331
:1009C000CF93DF93EC01798368835B834A833E8313
:1009D0002D830F83EC828E2D90E016D8801710F4B3
:1009E000888701C01886BADF69877A878B879C87DA
:1009F000CE01DF91CF910F91EF90DCCECF92DF92BD
:100A0000EF92FF921F93CF93DF93EC018827B09969
:100A1000839511E0811101C010E0A0DFCB80DC8064
:100A2000ED80FE806C157D058E059F05C9F06B83FA
:100A30007C838D839E8328813981220F331F306E02
:100A4000212B398328832115304F51F48A8181115C
:100A500007C084DF6F83788789879A8781E08A83DC
:100A6000DF91CF911F91FF90EF90DF90CF9008958D
:100A7000CF92DF92EF92FF926B017C016FDF6C19D6
:100A80007D098E099F09FF90EF90DF90CF90089528
:100A9000CF93DF93EC0169857A858B859C85E8DFB0
:100AA000693873418105910590F58881998112DF3C
:100AB0008A819B81A3DFE881F9818181118288236A
:100AC00041F1282F332727FD3095488587FF0AC03D
:100AD000319521953109642F70E0621773076CF42A
:100AE00018860DC09F81240F311D692F70E02617D5
:100AF00037071CF09150988702C0840F88872EDF3B
:100B000069877A878B879C87CE0154DE02C080E09C
:100B100001C081E0DF91CF910895AF92BF92CF9253
:100B2000DF92EF92FF920F931F93CF93DF938C018D
:100B3000DC01CD91DC91688179818A819B8198DF8C
:100B4000693C71058105910508F48CC0C29824E0C8
:100B500080E090E0DC011FB8779BFECFBA2FA92F71
:100B6000982F88273FB1832B2150A9F7C29A80FF85
:100B700002C084E007C081FF02C083E003C082FF9F
:100B800003C082E08E8332C06C017D0122E1F694C5
:100B9000E794D794C7942A95D1F7B7FF05C0B0EC76
:100BA000DB2AEE24EA94FE2C82E0F694E794D794B4
:100BB000C7948A95D1F7DD82CC8281E08E8389E06B
:100BC00090E022D7282F332727FD309587FF07C0D5
:100BD00088279927821B930BC816D9062CF0C20EC2
:100BE000D31EDD82CC8202C01D821C82B7DE6883E8
:100BF00079838A839B83D801ED91FC918681823031
:100C000009F1C8F4813071F54481558162E080E0DA
:100C100036DD4BE062E084E2D6DC4CE062E080E36B
:100C2000DF91CF911F910F91FF90EF90DF90CF90C8
:100C3000BF90AF90C8CC833041F0843099F48AE6FD
:100C400090E005C080E690E002C085E690E0DF918C
:100C5000CF911F910F91FF90EF90DF90CF90BF90B9
:100C6000AF9042C1DF91CF911F910F91FF90EF9014
:100C7000DF90CF90BF90AF900895FC012281222396
:100C800069F012826781708581859285F1DE21E0AD
:100C90006B3F71058105910508F020E0822F0895D2
:100CA000CF93DF93EC018881998114DE8A819B8147
:100CB000A5DEE881F981918111829923E1F088858F
:100CC00097FF0CC0482F50E0692F772761950CF4EF
:100CD00070954617570714F4188606C0890F9C8133
:100CE000891708F4982F9887CE0102DD37DE6987CF
:100CF0007A878B879C8769857A858B859C85B8DE0A
:100D0000613177428105910548F48A819B81B5DF85
:100D1000882349F28D81688590E083D680E0DF9159
:100D2000CF910895CF93DF93EC0188819981D2DD33
:100D30008A819B8163DEE881F981218111822223EE
:100D400031F1822F992787FD90954A855B8527FF92
:100D50000AC022273327281B390B421753071CF4DC
:100D60001B861A860AC0840F951F883E23E09207CF
:100D700010F087EE93E09B878A874A855B856985BB
:100D800088857DDCEBDD6C877D878E879F876C8512
:100D90007D858E859F856CDE69387341810591055F
:100DA00068F48A819B8169DF882309F4BECF6A8554
:100DB0007B858C8190E042D68D8101C080E0DF91FF
:100DC000CF9108951F93CF93DF93EC018885FB01AA
:100DD00080838A819B8151DF182F882321F08C81A9
:100DE000688590E01ED6812FDF91CF911F910895E5
:100DF0001F920F920FB60F921124939815BC0F906B
:100E00000FBE0F901F9018951F920F920FB60F9262
:100E100011248F93939A8CEF84BD8F910F900FBE06
:100E20000F901F9018951F920F920FB60F921124DA
:100E30008F93EF93FF93E0917000F09171008081A8
:100E4000882339F08081843631F08181882319F03C
:100E500009C0939810C0939A818183BD14BC87E028
:100E600085BD09C081818334B8F381818F3488F7CF
:100E700082E48183F1CFFF91EF918F910F900FBEAC
:100E80000F901F9018951F920F920FB60F9211247A
:100E90008F939F93AF93BF93809176008F5F8093E2
:100EA000760080917600837099F480917200909121
:100EB0007300A0917400B09175000196A11DB11D41
:100EC0008093720090937300A0937400B0937500A8
:100ED00082B78A5F82BFBF91AF919F918F910F9030
:100EE0000FBE0F901F901895EF92FF920F931F93D4
:100EF000CF93DF931F92CDB7DEB7182F80E8998389
:100F000051DB82E44FDB012FE12E9981F92E1E2D5A
:100F1000101BF70181917F01882319F060E006DC46
:100F2000F6CF1C3028F460E080E200DC1F5FF9CFD0
:100F30000F90DF91CF911F910F91FF90EF90089547
:100F4000CF93DF93CDB7DEB7CE56D1090FB6F89465
:100F5000DEBF0FBECDBFF89480E090E05DD5853553
:100F60009A4A61F160E082E090E05BD560E08AE05F
:100F700090E057D560E08BE090E053D565E070E0FD
:100F800083E090E05BD563E070E085E090E056D5CB
:100F900063E070E087E090E051D560E089E090E0A8
:100FA00040D564E68DE090E03CD560E58EE090E0D1
:100FB00038D565E57AEA80E090E040D58FEE98ED8F
:100FC000AFEFBFEF8FA798ABA9ABBAAB1DAA1CAA16
:100FD0001BAA1FAA1EAA86E390E08C0F9D1F909368
:100FE00071008093700015BC89B7806C89BF23960F
:100FF0001FAE239710BC83E389B91BB888E18AB977
:1010000086E880BD24961FAE249725961FAE2597AF
:101010008FEF9FEF27969FAF8EAF27972C961CAE32
:101020001DAE1EAE1FAE2C9728961FAE289780E5EA
:101030008DB9709A8EB18FB1899A8898909AA29A38
:10104000B99A1BBC1ABC83E88FBD82E08EBDA19A01
:10105000A09AA89ABA9AC29ABC98BB9ABD9A8A9842
:1010600085BF80E48BBF8B9A93988F988E98979AC0
:10107000969AB898C09A8D9A959883B7826083BFE4
:1010800089B7816089BFA99A69DCDC01CB018396AD
:10109000A11DB11D00917200109173002091740088
:1010A00030917500081719072A073B0798F3A9988C
:1010B00055DCDC01CB010296A11DB11D009172002F
:1010C0001091730020917400309175000817190772
:1010D0002A073B0798F3A99A81E264DA84E162DA8D
:1010E00084E060DA80E25EDA8CE05CDA8EE090E048
:1010F0008BD487FF05C060E58EE090E092D480E558
:1011000058DADBDB78948DE090E07ED4282F30E055
:10111000AFEFB3E0B6D424E630E040E050E0E4D4F2
:101120003BBD2ABD80E0BFE2CB2ED12CCC0EDD1E14
:1011300096E1C90ED11C1FE2212E312C2C0E3D1E32
:10114000A4E12A0E311C082F10E0B7DB0C3011058A
:10115000E0F7F801ED5EFF4F0994CE01C8969A833F
:101160008983DC82CB82E6E3F0E0EC0FFD1FFE8397
:10117000ED836FEA70E0C1976FDB8FE290E08C0F38
:101180009D1F98878F838BEA90E09B878A878FEFDC
:10119000898795988FEE98EDAFEFBFEF8C879D878D
:1011A000AE87BF8710E0CE010796B7DC8985181798
:1011B000E1F01987E12FF0E0EE0FFF1F8A859B8594
:1011C000E80FF91F0591149185E4ECD9F12C8F2DCE
:1011D0008068E8D996E0F90EF8018491882329F017
:1011E0000F5F1F4F60E0A2DAF2CF8B819C8106DC9B
:1011F000E981FA8182858A3038F55F9B25C09CB1F0
:10120000DF01A80FB11D9C931281811104C0908150
:101210009A3A79F481C2813021F49181953549F46B
:101220007BC2823009F078C29FEF910F963008F4AC
:1012300073C212868285853009F004C2113009F428
:1012400009C2163009F406C26C857D858E859F859E
:101250000FDC693873418105910518F4959A11E006
:10126000A2CF95988B819C8108DD882309F49ACFC1
:1012700060E08D819E8149DB959881E064CF66ECCA
:1012800070E0CE010196E8DA7AE0E72E04E02EEB7A
:1012900030E0A601B101CE01019690DBCE010196AE
:1012A000F7DB882309F4CCC1BE01605B7F4FCE0120
:1012B000019688DD882391F361968FAD6197813027
:1012C00029F040F0833021F483E03DCF87E03BCF2D
:1012D00082E039CF86E037CF69ED70E0CE0101962C
:1012E000BBDA6CE0E62E02E025ED30E0A601B101AC
:1012F000CE01019663DBCE010196CADB882309F497
:101300009FC1BE01605B7F4FCE0101965BDD8823EC
:1013100091F361968FAD6197882311F085E013CF2B
:1013200084E011CF3A822982DC82CB8284E68D83ED
:101330008DE08E8368E971E00AC03A822982DC82FE
:10134000CB828FE78D838EE08E8369E871E0CE01DA
:10135000079682DA1F8282E088878E8190E054D3DC
:101360008987CE010196C4D9F9DA6A877B878C8791
:101370009D87CE01019694DCE6CE3A822982DC82FA
:10138000CB8268EE70E0CE01059666DA1D8282E0BF
:101390008E8389E090E038D38F83482F552747FD0F
:1013A000509562E080E06FDAD9DA688779878A87BA
:1013B0009B871DE903E689819A818CDA8B819C8168
:1013C0001DDBE981FA81918111829923B9F08F8126
:1013D000890F843614F00F8305C08D3914F08F8384
:1013E00001C01F834F81552747FD50956E818D8128
:1013F0004ADAB4DA688779878A879B87688579852E
:101400008A859B8535DB613375478105910508F039
:1014100017C18B819C8131DC882369F26F8189E05F
:1014200090E0FFD20DC16BEF70E0CE01019614DAAF
:1014300052E0E52E02E027EF30E0A601B101CE0137
:101440000196BCDACE01019623DB882309F4F8C0AB
:10145000BE01605B7F4FCE010196B4DC882391F31F
:101460008AE071CE83E0A0968FAFA09798E0A19616
:101470009FAFA197AAE7B1E0A396BFAFAEAFA39786
:10148000A3960CAD1DAD2EAD3FADA39728C0B5E022
:10149000A496BFAFA497E9E0A596EFAFA5978BE61A
:1014A00091E0A7969FAF8EAFA797A7960CAD1DAD05
:1014B0002EAD3FADA79713C097E0A8969FAFA89712
:1014C000A9961FAEA997ACE5B1E0AB96BFAFAEAFA2
:1014D000AB97AB960CAD1DAD2EAD3FADAB97A60156
:1014E000B101CE01019645DACE0101961BDC2BCE6F
:1014F0006EE071E0CE010196AFD94BE0E42E02E040
:101500002AE031E0A601B101CE01019657DACE0101
:101510000196BEDA882309F493C0BE01605B7F4F59
:10152000CE0101964FDC882391F361968FAD6197D0
:10153000811186C08BE007CEDA82C982E6E3F0E053
:10154000EC0FFD1FFC83EB836DE171E0CE018D9606
:1015500083D98FE290E08C0F9D1F9EA78DA783E01B
:10156000F4D94C0185E0F1D95C0187E0EED98C011A
:10157000B40180E090E0D8D3688779878A879B8719
:10158000B50180E090E0D0D36C877D878E879F8700
:10159000B80180E090E0C8D3688B798B8A8B9B8BF5
:1015A0001C8A1D8A1E8A1F8A188E198E1A8E1B8EFF
:1015B00082E090E029D2811105C086E08D8384E429
:1015C00091E004C086E08D838CE291E09F838E835E
:1015D00080E090E0A8ECB1E48C8F9D8FAE8FBF8F40
:1015E0001DA21CA21FA21EA2B9D968A779A78AA70B
:1015F0009BA7CE0101965AD723E5F22E03E435E2EC
:10160000E32ECE018D9689DA89819A81F7D9ADA42E
:10161000BEA468A579A58AA59BA52ADA693E734070
:101620008105910520F0F501868181117FC08981B6
:101630009A8123DB882329F360E08B819C8165D923
:1016400080E081CD863009F0FFCD8EEF810F8430B0
:1016500008F0FACD1286112309F4F6CD05817ED962
:101660006C877D878E879F87133079F130F4113036
:1016700009F455C0123011F147C01530E1F148F1BD
:10168000163009F041C009811A8189E090E0BCD18F
:1016900061968FAF61978DE090E0B6D162968FAF83
:1016A00062978EE090E0B0D163968FAF639723E0AE
:1016B000AE01405B5F4F60E0C8012CC0053620F5ED
:1016C000602F8D819E8121D92AC0602F89E090E012
:1016D00019C00536C8F4202F30E0AFEFB3E0D1D108
:1016E00024E630E040E050E0FFD13BBD2ABD602F52
:1016F0008DE090E007C007FD07C0802F5AD7602F0C
:101700008EE090E08ED10BC020E040E050E061E040
:1017100089819A8121D798CD8F5F82878BCD4F8128
:1017200058854C5F5F4F23E060E0F2CF813009F0D5
:1017300083CF14D968A779A78AA79BA78CA19DA15D
:10174000892B89F4D50114966D917C911597882782
:1017500077FD8095982FEAD22C8D3D8D4E8D5F8D33
:1017600071D387FD3CC06EA17FA17727660F771FDD
:10177000660F771F8E819F81680F791F44E050E0CC
:10178000CE01805B9F4F0DD164968CAD9DADAEAD0B
:10179000BFAD64972CA13DA12817390771F48EA124
:1017A0009FA101969FA38EA32D8130E082179307FE
:1017B00009F442CFCE01019679D68CA19DA1019664
:1017C0009DA38CA328A139A14AA15BA16C8D7D8D1D
:1017D0008E8D9F8DACD16C8F7D8F8E8F9F8FF501FD
:1017E00064817581882777FD8095982F9FD29B0112
:1017F000AC016C8D7D8D8E8D9F8D98D12B013C0120
:10180000288D398D4A8D5B8D92D14B015C0120E092
:1018100030E048EC52E416D3181664F020E030E0D3
:10182000A901C501B4010ED3181654F0812C912CD6
:10183000540106C0812C912C88ECA82E82E4B82E8D
:10184000888E998EAA8EBB8E288539854A855B85C0
:10185000C301B201FBD2AF966CAF7DAF8EAF9FAF2D
:10186000AF972C853D854E855F85C501B401EED2CD
:101870009B01AC01AF966CAD7DAD8EAD9FADAF97CA
:1018800056D14B015C012C893D894E895F89C3018A
:10189000B2014CD1288939894A895B89D7D29B0109
:1018A000AC01C501B40143D14B015C0120E030E043
:1018B00048EC52E4C7D218166CF020E030E0A901E1
:1018C000B401C501BFD2181654F0812C912C30E020
:1018D00020E007C0812C912C38EC22E402C03A2D84
:1018E0002B2D4C8A5D8A6E8A7F8AB401832F922FBA
:1018F000EFD1162F8B819C8108D86C8D7D8D8E8DBC
:101900009F8DE1D12B013C01ACA0BDA04EE050E089
:1019100060E270E0CE01805B9F4F28D34AE0BE01B9
:10192000605B7F4FC5014DD0CE01805B9F4F4C0166
:10193000FC01019620812111FBCFF0825F0192E032
:10194000A90EB11C4AE0B501C2013BD0C501FC01A2
:10195000019620812111FBCF00835F01A2E0AA0E36
:10196000B11C4AE0B501812F90E02BD0F501BFEF0B
:10197000AB1ABB0A80818111F9CFE0826F961FAE4E
:101980006F9785E40FD610E0812F80680BD61A5F21
:10199000F40181914F01882309F449CE60E0C6D655
:1019A000F3CFFB01DC0102C005900D924150504085
:1019B000D8F70895FB01DC0105900D920020E1F7B6
:1019C0000895BB274A3031F4992322F4BDE2909563
:1019D00081959F4F01C0BB27FB015527AA27880F80
:1019E000991FAA1FA41710F0A41B83955051B9F793
:1019F000A05DAA3308F0A95DA193009779F7B11112
:101A0000B1931192CB011DC0E199FECF9FBB8EBB5C
:101A1000E09A99278DB30895A8E1B0E042E050E044
:101A200022C0262FE199FECF9FBB8EBB2DBB0FB6E8
:101A3000F894E29AE19A0FBE01960895F2DF272FFB
:101A4000F1CFDC01FC01672F71917723E1F7329729
:101A500004C07C916D9370836291AE17BF07C8F389
:101A60000895DC01CB01FC01E199FECF06C0FFBB6C
:101A7000EEBBE09A31960DB20D9241505040B8F74E
:101A80000895A29FB001B39FC001A39F01D0B29F50
:101A9000700D811D1124911D0895AA1BBB1B51E1DE
:101AA00007C0AA1FBB1FA617B70710F0A61BB70BCE
:101AB000881F991F5A95A9F780959095BC01CD0173
:101AC000089597FB072E16F4009406D077FD08D0F2
:101AD000E4DF07FC05D03EF4909581959F4F089573
:101AE000709561957F4F0895A1E21A2EAA1BBB1B2A
:101AF000FD010DC0AA1FBB1FEE1FFF1FA217B307DA
:101B0000E407F50720F0A21BB30BE40BF50B661FEF
:101B1000771F881F991F1A9469F7609570958095B3
:101B200090959B01AC01BD01CF0108955058BB2792
:101B3000AA270ED04DC13ED130F043D120F031F470
:101B40009F3F11F41EF433C10EF4E095E7FB29C169
:101B5000E92F4FD180F3BA176207730784079507FF
:101B600018F071F49EF567C10EF4E0950B2EBA2FB4
:101B7000A02D0B01B90190010C01CA01A001112493
:101B8000FF27591B99F0593F50F4503E68F11A163F
:101B9000F040A22F232F342F4427585FF3CF4695D0
:101BA00037952795A795F0405395C9F77EF41F16F2
:101BB000BA0B620B730B840BBAF09150A1F0FF0FBC
:101BC000BB1F661F771F881FC2F70EC0BA0F621FA8
:101BD000731F841F48F4879577956795B795F79598
:101BE0009E3F08F0B3CF9395880F08F09927EE0F2A
:101BF0009795879508950CD0EBC0E3D040F0DAD0EC
:101C000030F021F45F3F19F0CCC0511115C1CFC0A5
:101C1000F0D098F39923C9F35523B1F3951B550BD5
:101C2000BB27AA2762177307840738F09F5F5F4FAF
:101C3000220F331F441FAA1FA9F333D00E2E3AF0F0
:101C4000E0E830D091505040E695001CCAF729D00A
:101C5000FE2F27D0660F771F881FBB1F2617370759
:101C60004807AB07B0E809F0BB0B802DBF01FF2789
:101C700093585F4F2AF09E3F510568F092C0DCC038
:101C80005F3FECF3983EDCF3869577956795B795C3
:101C9000F7959F5FC9F7880F911D9695879597F9DE
:101CA0000895E1E0660F771F881FBB1F6217730757
:101CB0008407BA0720F0621B730B840BBA0BEE1F6C
:101CC00088F7E095089504D06894B111B5C00895DF
:101CD00098D088F09F5790F0B92F9927B751A0F06E
:101CE000D1F0660F771F881F991F1AF0BA95C9F7B0
:101CF00012C0B13081F09FD0B1E008959CC0672F31
:101D0000782F8827B85F39F0B93FCCF3869577955F
:101D10006795B395D9F73EF4909580957095619548
:101D20007F4F8F4F9F4F0895E89409C097FB3EF473
:101D300090958095709561957F4F8F4F9F4F992318
:101D4000A9F0F92F96E9BB279395F6958795779596
:101D50006795B795F111F8CFFAF4BB0F11F460FF56
:101D60001BC06F5F7F4F8F4F9F4F16C0882311F0AE
:101D700096E911C0772321F09EE8872F762F05C0C2
:101D8000662371F096E8862F70E060E02AF09A955D
:101D9000660F771F881FDAF7880F9695879597F952
:101DA000089597F99F6780E870E060E008959FEFDD
:101DB00080EC089500240A941616170618060906E2
:101DC000089500240A9412161306140605060895B1
:101DD000092E0394000C11F4882352F0BB0F40F439
:101DE000BF2B11F460FF04C06F5F7F4F8F4F9F4F79
:101DF000089557FD9058440F551F59F05F3F71F0FB
:101E00004795880F97FB991F61F09F3F79F0879561
:101E10000895121613061406551FF2CF4695F1DFEA
:101E200008C0161617061806991FF1CF869571057A
:101E3000610508940895E894BB2766277727CB01AE
:101E400097F9089566D008F48FEF08950BD0C0CFAE
:101E5000B1DF28F0B6DF18F0952309F0A2CFA7CFA5
:101E60001124EACFC6DFA0F3959FD1F3950F50E080
:101E7000551F629FF001729FBB27F00DB11D639F3C
:101E8000AA27F00DB11DAA1F649F6627B00DA11DE2
:101E9000661F829F2227B00DA11D621F739FB00D88
:101EA000A11D621F839FA00D611D221F749F3327F8
:101EB000A00D611D231F849F600D211D822F762F91
:101EC0006A2F11249F5750408AF0E1F088234AF08E
:101ED000EE0FFF1FBB1F661F771F881F91505040DA
:101EE000A9F79E3F510570F05CCFA6CF5F3FECF3A2
:101EF000983EDCF3869577956795B795F795E795C6
:101F00009F5FC1F7FE2B880F911D9695879597F9D6
:101F10000895990F0008550FAA0BE0E8FEEF16167A
:101F20001706E807F907C0F012161306E407F507CD
:101F300098F0621B730B840B950B39F40A2661F041
:101F4000232B242B252B21F408950A2609F4A140E4
:101F5000A6958FEF811D811D0895FB01DC0102C054
:101F600001900D9241505040D8F70895DC0101C016
:0E1F70006D9341505040E0F70895F894FFCF74
:101F7E00452031200045203220004520332000002E
:00000001FF
